:100000000C94B5000C94D2000C94D2000C94D20045
:100010000C94D2000C94D2000C94D2000C94D20018
:100020000C94D2000C94D2000C94D2000C94D20008
:100030000C94D2000C94D2000C94D2000C94D200F8
:100040000C94D2000C94D2000C94D2000C94D200E8
:100050000C94D2000C94D2000C94D2000C94D200D8
:100060000C94D2000C94D2006E616E00696E660032
:1000700000407A10F35A00A0724E18090010A5D45F
:10008000E80000E87648170000E40B54020000CABC
:100090009A3B000000E1F505000080969800000002
:1000A00040420F000000A086010000001027000061
:1000B0000000E803000000006400000000000A00E7
:1000C000000000000100000000002C76D888DC67EA
:1000D0004F0823DFC1DFAE59E1B1B796E5E3E45342
:1000E000C63AE651997696E8E6C28426EB898C9B5F
:1000F00062ED407C6FFCEFBC9C9F40F2BAA56FA5FF
:10010000F490055A2AF75C936B6CF9676DC11BFC80
:10011000E0E40D47FEF520E6B500D0ED902E03009B
:10012000943577050080841E080000204E0A0000E8
:1001300000C80C333333330F986E12831141EF8DA7
:100140002114893BE65516CFFEE6DB18D1844B38E7
:100150001BF77C1D901DA4BBE424203284725E2218
:100160008100C9F124ECA1E53D2711241FBECFEF8A
:10017000D8E0DEBFCDBF11E0A0E0B1E0E4E9FEE1F0
:1001800002C005900D92A83EB107D9F722E0A8EE73
:10019000B1E001C01D92A030B207E1F70E94B505A1
:1001A0000C94480F0C9400000E94E4000E94FB0194
:1001B0009093F9018093F8010E9410020E940F03AE
:1001C000811101C0FFCF08951092C5008CE080938B
:1001D000C4001092C00088E18093C10086E0809343
:1001E000C20008958091C00087FF04C08091C600BE
:1001F00090E008958FEF9FEF08958091C00087FFF2
:10020000FCCF8091C60008950E94FD00992787FDCC
:1002100090950895CF92DF92EF92FF92CF93DF9364
:10022000EC016A017B01C114D104E104F10449F03D
:100230000E94FD00899381E0C81AD108E108F10805
:10024000F2CFDF91CF91FF90EF90DF90CF900895A4
:100250009091C00095FF06C08093C600992787FD46
:10026000909508958FEF9FEF08959091C00095FFAE
:10027000FCCF8093C6000895CF93C82F8A3019F41D
:100280008DE00E943C018C2F0E9435018C2F992714
:1002900087FD9095CF910895CF92DF92EF92FF92D4
:1002A000CF93DF93EC016A017B01C114D104E10417
:1002B000F10449F089910E94350181E0C81AD10802
:1002C000E108F108F2CFDF91CF91FF90EF90DF903E
:1002D000CF9008950F931F93CF93DF93EC018E017E
:1002E0008881882359F08A3019F48DE00E94350105
:1002F0002196F80180810E943501F1CFDF91CF91E5
:100300001F910F910895AF92BF92CF92DF92EF921B
:10031000FF921F93CF93DF9300D000D0CDB7DEB70D
:100320005C014150510961097109C12CD12C760140
:1003300049835A836B837C830E94FD00182F498177
:100340005A816B817C818D30F1F18F3719F08A30C1
:10035000B1F439C0C114D104E104F10449F38FE7C9
:1003600049835A836B837C830E943501F1E0AF1A85
:10037000B10881E0C81AD108E108F1081FC0992727
:1003800087FD909549835A836B837C830E94C30CBD
:1003900049815A816B817C81892B51F2C416D50623
:1003A000E606F70629F2812F0E943501F501119327
:1003B0005F01FFEFCF1ADF0AEF0AFF0A49815A8176
:1003C0006B817C81B5CF8DE00E9435018AE00E946F
:1003D0003501F5011082C701B6010F900F900F9003
:1003E0000F90DF91CF911F91FF90EF90DF90CF9012
:1003F000BF90AF9008958091F4019091F501892B01
:1004000051F464E071E08CE391E00E94DF0C909382
:10041000F5018093F4018091F4019091F501089524
:1004200082E08093B8001092B900089584EA809326
:10043000BC008091BC0087FFFCCF089584E98093C5
:10044000BC008091BC0084FDFCCF87EC90E001975C
:10045000F1F700C0000008958093BB0084E880930A
:10046000BC008091BC0087FFFCCF9091B900987FC1
:1004700081E0903431F0983129F0983219F080E021
:10048000089508950895882311F084EC01C084E84C
:100490008093BC008091BC0087FFFCCF8091BB00A3
:1004A0000895CF93DF931F92CDB7DEB789830E9463
:1004B000160289810E942C0289830E941E02898172
:1004C0000F90DF91CF910895EF92FF920F931F93BA
:1004D000CF93DF9300D000D01F92CDB7DEB72C832F
:1004E0003D834B836A8389830E9416028981880F2A
:1004F0000E942C02082F6A81862F0E942C0291E014
:100500002C813D814B81811190E011E0011110E0BF
:10051000190F7901042F020F0E1551F0F701819187
:100520007F010E942C0291E0811190E0190FF4CF1D
:100530000E941E0281E0111180E00F900F900F9039
:100540000F900F90DF91CF911F910F91FF90EF903F
:100550000895CF92DF92EF92FF920F931F93CF9364
:10056000DF931F92CDB7DEB7E82E142FF22E032FA4
:1005700069830E941602EE0C8E2D0E942C02D82E4A
:100580006981862F0E942C0291E0811190E051E058
:10059000D11050E0D92ED50E0E9416028E2D81600A
:1005A0000E942C0291E0811190E0D90E21F41150AB
:1005B000CF2CD02E04C00E941E028D2D0DC01F3FD7
:1005C00041F0812F0E944302F60181936F01115087
:1005D000F6CF0E941E0281E00F90DF91CF911F9114
:1005E0000F91FF90EF90DF90CF900895CF93DF931E
:1005F0001F92CDB7DEB79E012F5F3F4F41E0682FBE
:100600008AE50E94A902882311F0898101C080E057
:100610000F90DF91CF91089580E00C94F6020E9434
:100620000C0387FD0CC020E030E040E064EF8AE579
:100630000E946402811103C08EE791E013C00E9402
:100640000C038079803919F081E991E00BC026E034
:1006500031E041E061E08AE50E946402811106C058
:1006600085EA91E00E94700D80E0089581E0089590
:1006700080EE0C94F60281E00C94F6020E940C03CA
:1006800088700895CF93DF93EC019C0148E062E00D
:100690008AE50E94A902888199819827892798274D
:1006A000998388838A819B819827892798279B83B0
:1006B0008A838E819F819827892798279F838E839D
:1006C000DF91CF910895CF92DF92EF92FF920F9337
:1006D0001F93CF93DF9300D000D0CDB7DEB7690171
:1006E0007A0120E030E040E054E40E94860B0E9452
:1006F000CC0A7627672776277A83698320E030E063
:1007000048EC51E4C701B6010E94680A20E030E0DD
:1007100040E054E40E94860B0E94CC0A76276727AB
:1007200076277C836B838DEB91E09F938F930E9460
:100730005C0D8A811F928F9389811F928F9306ECA3
:1007400011E01F930F930E945C0D8C811F928F9379
:100750008B811F928F931F930F930E945C0D9E01BC
:100760002F5F3F4F44E065E08AE50E9464020FB6C8
:10077000F894DEBF0FBECDBF0F900F900F900F907B
:10078000DF91CF911F910F91FF90EF90DF90CF906D
:100790000895CF93DF9300D000D0CDB7DEB7198294
:1007A0001A821B821C829E012F5F3F4F44E065E04E
:1007B0008AE50E94A90282ED91E09F938F930E94A7
:1007C0005C0D8A811F928F9389811F928F9386EC93
:1007D00091E09F938F930E945C0D8C811F928F9369
:1007E0008B811F928F938BED91E09F938F930E944B
:1007F0005C0D0FB6F894DEBF0FBECDBF0F900F900B
:100800000F900F90DF91CF9108950F931F93CF9387
:10081000DF9300D0CDB7DEB79E012F5F3F4F42E0A0
:1008200065EE80E40E94A902098110E0102F0027E4
:100830008A81082B9E012F5F3F4F42E060EE80E4EB
:100840000E94A902298130E0322F22274A81B80173
:10085000C901842B0F900F90DF91CF911F910F91C1
:100860000895CF93DF931F92CDB7DEB79E012F5F20
:100870003F4F41E067EE80E40E94A902882311F017
:10088000898101C080E00F90DF91CF910895CF93CF
:10089000DF9300D0CDB7DEB79E012F5F3F4F42E020
:1008A00063EE80E40E94A902898190E0982F882756
:1008B0002A81822B0F900F90DF91CF910895CF92D4
:1008C000DF92EF92FF920F931F93CF93DF931F92CC
:1008D000CDB7DEB7182F99830E94160280E80E94D8
:1008E0002C02F82E9981892F0E942C0291E081110F
:1008F00090E021E0F11020E0F92EF20E812F0E940D
:100900002C0221E0811120E0F20E0E94160281E803
:100910000E942C0291E0811190E09F0DF9F416E005
:10092000C12CD12C760103E0115098F0812F602F5B
:100930000E940B0A911104C0812F0E944302F4CF40
:10094000FE2CED2CDC2CCC24812F0E944302C82AE3
:10095000EBCF0E941E02B601C70104C060E070E048
:1009600080E090E00F90DF91CF911F910F91FF9069
:10097000EF90DF90CF900895AF92BF92CF92DF9229
:10098000EF92FF920F931F93CF93DF938FE09AEF35
:100990000E945F04DC01CB019C01AD0160E070E0CE
:1009A00080E090E000E20E944E0AD22EC32EB42EC8
:1009B000A52E7B01D82FC92F89EC9CEF0E945F04E4
:1009C0008B019C01D62AC12AB22A5A2D532B2D2DD8
:1009D0003C2D4B2DB7018D2F9C2FDF91CF911F9177
:1009E0000F91FF90EF90DF90CF90BF90AF90089560
:1009F0001F93CF93DF931F92CDB7DEB7182F9E01C1
:100A00002F5F3F4F41E067EE80E40E94A902811111
:100A100002C080E029C0898117FF02C0846001C044
:100A20008B7F89839E012F5F3F4F41E066EE80E41C
:100A30000E946402882369F39E012F5F3F4F41E0CB
:100A400061E180E40E94A902882319F3812F8F704D
:100A50009981907F892B89839E012F5F3F4F41E0D1
:100A600061E580E40E9464020F90DF91CF911F91B5
:100A7000089599E080E0915069F0189BFECF25E839
:100A80002A95F1F7000023B1880F2170822B189965
:100A9000FECFF1CF0895EF92FF920F931F93CF9364
:100AA000DF9300D000D01F92CDB7DEB7189BFECFEA
:100AB0002898209A8FEC97E00197F1F700C000008A
:100AC0002098289A90E59A95F1F785E1815061F098
:100AD000189905C0189BFECF1899FECF0BC09AE15C
:100AE0009A95F1F700C0F2CF1A8219821C821B82FC
:100AF0008FEF18C00E943905E82E0E943905F12CAD
:100B0000FE2CEE24E82A0E943905082F0E943905A0
:100B100010E0102F0027082B0E943905FA82E98285
:100B20001C830B838D8329813A814B815C816D818C
:100B300070E080E090E00F900F900F900F900F907A
:100B4000DF91CF911F910F91FF90EF900895FC01DD
:100B5000DC0185E090E0815019F02D91920FFBCFE0
:100B600081E02481921380E00895CF93DF9300D039
:100B700000D0CDB7DEB70E94D4002FEF33ED80E375
:100B8000215030408040E1F700C0000087E091E054
:100B90000E94700D80E00E94F8040FE211E08EE3E5
:100BA000E82E81E0F82E9BE4C92E91E0D92E28E5AD
:100BB000A22E21E0B22E35E6832E31E0932EA5E160
:100BC000B1E0BF93AF930E945C0D0E940504609357
:100BD000F0017093F1018093F2019093F3016B8324
:100BE0007C832B813C81B90180E090E00E94F80A6F
:100BF00020E030E04AEF52E40E94860B20E030E033
:100C000040E857E30E94860B20E030E040EC50E4DF
:100C10000E94670A2B013C012091F2013091F301FF
:100C2000B90180E090E00E94F80A22E538EB4FE23B
:100C300053E40E94860B20E030E040E857E30E9436
:100C4000860B26E636E64BE352E40E94670A698388
:100C50007A831C013C813F938B818F937F926F92AB
:100C60005F924F92A2E2B1E0BF93AF930E945C0DFE
:100C70008091F3018F938091F2018F933F922F9295
:100C80002A812F9339813F931F930F930E945C0D0C
:100C90000E943E030FB6F894DEBF0FBECDBF88237F
:100CA000A9F1FF92EF920E945C0D88EE91E00E9404
:100CB000420379816A81272F362F422D532D642DCF
:100CC000752D862D972D0E9463038091E9018F93E6
:100CD0008091E8018F93DF92CF920E945C0D80910A
:100CE000EB018F938091EA018F93BF92AF920E94A4
:100CF0005C0D0E9438031F928F939F928F920E94E7
:100D00005C0D0FB6F894DEBF0FBECDBFFFEF24E33E
:100D10003CE0F15020403040E1F700C000004FCFF0
:100D2000A3E1B0E0E6E9F6E00C94170A7C011B01B0
:100D30006A01FC0117821682838181FF66C3BE01AE
:100D40006F5F7F4F4B01F7019381F10193FD859117
:100D500093FF81911F01882309F453C3853239F42D
:100D600093FD859193FF81911F01853239F4B7017D
:100D700090E00E942A0D56016501E5CF10E0512C4C
:100D800020E02032A0F48B3269F030F4803259F048
:100D9000833269F420612CC08D3239F0803339F40C
:100DA000216026C02260246023C0286021C027FD66
:100DB00027C030ED380F3A3078F426FF06C0FAE04D
:100DC0001F9F300D1124132F13C06AE0569E300D63
:100DD0001124532E20620CC08E3221F426FD11C343
:100DE000206406C08C3611F4206802C0883641F4B5
:100DF000F10193FD859193FF81911F018111C1CF75
:100E00009BEB980F933018F42061805E06C09BE93D
:100E1000980F933008F0AAC12F7E26FF16E02F739B
:100E2000722E853621F4F22FF0647F2E08C08636AC
:100E300021F4622F6068762E02C01111115077FEE6
:100E400007C01C3348F444244394410E27E00BC0F0
:100E5000183030F4212F06C027E04CE3442E03C0A5
:100E600027E017E0412C560174E0A70EB11CF601F3
:100E70006081718182819381042DA4010E94E90B1C
:100E80006C01098100FF02C003FF06C071FC07C0AE
:100E900072FC08C0612C08C03DE2632E05C02BE245
:100EA000622E02C090E2692E802F8C7099F166202C
:100EB00011F084E001C083E0851510F0512C0BC0C7
:100EC000581A73FC08C0B70180E290E00E942A0D16
:100ED0005A94C9F7F3CF662029F0B701862D90E028
:100EE0000E942A0D03FD03C00CE610E002C008E6D4
:100EF00010E0F72DF0717F2EF8018491882309F41A
:100F000076C271108052B70190E00E942A0D0F5FE7
:100F10001F4FF2CF77FE0FC04C0C04FF04C08A8134
:100F2000813309F44A94141474F5F8E0F41578F553
:100F300088E0482E2CC076FC2AC0812F90E08C15CA
:100F40009D059CF06CEFC6166FEFD60674F0772DFA
:100F50007068772E0AC0E2E0F0E0EC0FFD1FE10FB1
:100F6000F11D8081803319F411501111F4CF77FEF7
:100F70000EC044244394410E812F90E0C816D90638
:100F80002CF41C1904C04424439401C010E077FEE3
:100F900007C01C141D043CF496012F5F3F4F05C091
:100FA00025E030E002C021E030E0662011F02F5F44
:100FB0003F4F112331F0412F50E04F5F5F4F240F1F
:100FC000351F452D50E02417350714F4521A01C07F
:100FD000512C872D897049F4552039F0B70180E2F2
:100FE00090E00E942A0D5A94F7CF662029F0B701AD
:100FF000862D90E00E942A0D73FC09C0552039F01F
:10100000B70180E390E00E942A0D5A94F7CF77FE53
:101010005FC09C2D8D2DD7FE02C090E080E0692E30
:10102000782E40E050E0C601841991099D878C8795
:10103000960126193709280D391D812F90E0EE27DA
:10104000FF27E81BF90BFF87EE87FFEF6F167F0680
:1010500069F4B7018EE290E02B8B3A8B488B598B69
:101060000E942A0D598948893A892B89C614D704C8
:1010700054F06C857D85661577052CF4F901E40F35
:10108000F51F818101C080E371E0671A71084F5F2D
:101090005F4FEE85FF856E167F066CF0B70190E01E
:1010A0002B8B3A8B488B598B0E942A0D2B893A89BE
:1010B00048895989CACF6C147D0439F49A819633D2
:1010C00018F4953311F404FF81E3B70190E04BC0AD
:1010D0008A81813309F00F7EB70190E00E942A0DCA
:1010E000111105C074FE18C085E490E017C0B70167
:1010F0008EE290E00E942A0D82E066246394680EDE
:10110000F401E80FF11D8081B70190E00E942A0DE3
:10111000115041F3862DF1CF85E690E0B7010E9492
:101120002A0DD7FC05C0C114D10439F404FF05C051
:10113000D194C194D1088DE201C08BE2B70190E057
:101140000E942A0D80E36AE0C616D1042CF08F5F5E
:10115000FAE0CF1AD108F7CFB70190E00E942A0D2C
:10116000B701C601C0960E942A0D41C1833631F0F5
:10117000833779F0833509F058C021C0560172E0F9
:10118000A70EB11CF6018081898301E010E06401A3
:1011900014C05601F2E0AF0EB11CF601C080D18040
:1011A00026FF03C0612F70E002C06FEF7FEFC60122
:1011B0002B8B0E94D40C8C012B892F7715C05601E4
:1011C000F2E0AF0EB11CF601C080D18026FF03C053
:1011D000612F70E002C06FEF7FEFC6012B8B0E9482
:1011E000C90C8C012B892068722E23FD1AC0852D15
:1011F00090E008171907A8F4B70180E290E00E9478
:101200002A0D5A94F4CFF60177FC859177FE8191EF
:101210006F01B70190E00E942A0D51105A940150BD
:1012200011090115110579F7E2C0843611F08936EC
:1012300051F5560127FF09C0F4E0AF0EB11CF601CD
:1012400060817181828193810AC0F2E0AF0EB11C8E
:10125000F60160817181882777FD8095982F022F94
:101260000F7697FF08C090958095709561957F4F98
:101270008F4F9F4F00682AE030E0A4010E949D0D2F
:10128000C82EC8183EC0022F853721F40F7E2AE0F1
:1012900030E01DC0097F8F3691F018F4883559F081
:1012A000B0C0803719F0883711F0ABC0006104FF7F
:1012B00009C0046007C024FF08C0066006C028E01B
:1012C00030E005C020E130E002C020E132E056010C
:1012D00007FF09C0F4E0AF0EB11CF6016081718117
:1012E0008281938108C0F2E0AF0EB11CF6016081EB
:1012F000718180E090E0A4010E949D0DC82EC81865
:101300000F7706FF0BC0202F2E7FC11650F404FF6D
:101310000AC002FD08C0202F2E7E05C0DC2C202F25
:1013200003C0DC2C01C0D12E24FF0DC0FE01EC0D4A
:10133000F11D8081803311F4297E09C022FF06C08F
:10134000D394D39404C0822F867809F0D39423FDDC
:1013500013C020FF06C01C2DD51418F4150D1D193F
:10136000D52CD51468F4B70180E290E02B8B0E9455
:101370002A0DD3942B89F5CFD51410F45D1801C034
:10138000512C24FF12C0B70180E390E02B8B0E9408
:101390002A0D2B8922FF17C021FF03C088E590E0AA
:1013A00002C088E790E0B7010CC0822F867859F020
:1013B00021FD02C080E201C08BE227FD8DE2B70172
:1013C00090E00E942A0DC11638F4B70180E390E046
:1013D0000E942A0D1150F7CFCA94F401EC0DF11DB3
:1013E0008081B70190E00E942A0DC110F5CF5520F1
:1013F00009F4C2CCB70180E290E00E942A0D5A9411
:10140000F6CFF7018681978102C08FEF9FEF639639
:10141000E2E10C94330A991B79E004C0991F9617F6
:1014200008F0961B881F7A95C9F7809508952F922A
:101430003F924F925F926F927F928F929F92AF9264
:10144000BF92CF92DF92EF92FF920F931F93CF93B1
:10145000DF93CDB7DEB7CA1BDB0B0FB6F894DEBF48
:101460000FBECDBF09942A88398848885F846E846E
:101470007D848C849B84AA84B984C884DF80EE80B8
:10148000FD800C811B81AA81B981CE0FD11D0FB6C1
:10149000F894DEBF0FBECDBFED0108950F93083065
:1014A00090F0982F872F762F652F542F432F322FB0
:1014B00022270850F4CF220F331F441F551F661FE9
:1014C000771F881F991F0A95B2F70F9108955058FA
:1014D000BB27AA270ED0E0C0D1D030F0D6D020F064
:1014E00031F49F3F11F41EF4C6C00EF4E095E7FB03
:1014F000BCC0E92FE2D080F3BA17620773078407F4
:10150000950718F071F49EF5FAC00EF4E0950B2ED5
:10151000BA2FA02D0B01B90190010C01CA01A00145
:101520001124FF27591B99F0593F50F4503E68F1A0
:101530001A16F040A22F232F342F4427585FF3CFE1
:10154000469537952795A795F0405395C9F77EF4B2
:101550001F16BA0B620B730B840BBAF09150A1F0FB
:10156000FF0FBB1F661F771F881FC2F70EC0BA0F81
:10157000621F731F841F48F4879577956795B79509
:10158000F7959E3F08F0B3CF9395880F08F0992701
:10159000EE0F97958795089598D088F09F5790F013
:1015A000B92F9927B751A0F0D1F0660F771F881F88
:1015B000991F1AF0BA95C9F712C0B13081F09FD0C7
:1015C000B1E008959CC0672F782F8827B85F39F065
:1015D000B93FCCF3869577956795B395D9F73EF4E7
:1015E00090958095709561957F4F8F4F9F4F08958F
:1015F000E89409C097FB3EF49095809570956195AD
:101600007F4F8F4F9F4F9923A9F0F92F96E9BB2762
:101610009395F695879577956795B795F111F8CFDE
:10162000FAF4BB0F11F460FF1BC06F5F7F4F8F4F49
:101630009F4F16C0882311F096E911C0772321F03F
:101640009EE8872F762F05C0662371F096E8862FD7
:1016500070E060E02AF09A95660F771F881FDAF72E
:10166000880F9695879597F9089597F99F6780E871
:1016700070E060E008959FEF80EC089500240A94E4
:101680001616170618060906089500240A9412165D
:101690001306140605060895092E0394000C11F490
:1016A000882352F0BB0F40F4BF2B11F460FF04C03D
:1016B0006F5F7F4F8F4F9F4F089557FD9058440F96
:1016C000551F59F05F3F71F04795880F97FB991FA1
:1016D00061F09F3F79F0879508951216130614065E
:1016E000551FF2CF4695F1DF08C0161617061806EB
:1016F000991FF1CF86957105610508940895E894C6
:10170000BB2766277727CB0197F908950BD0C4CF65
:10171000B5DF28F0BADF18F0952309F0A6CFABCFDC
:101720001124EECFCADFA0F3959FD1F3950F50E0BF
:10173000551F629FF001729FBB27F00DB11D639F83
:10174000AA27F00DB11DAA1F649F6627B00DA11D29
:10175000661F829F2227B00DA11D621F739FB00DCF
:10176000A11D621F839FA00D611D221F749F33273F
:10177000A00D611D231F849F600D211D822F762FD8
:101780006A2F11249F5750408AF0E1F088234AF0D5
:10179000EE0FFF1FBB1F661F771F881F9150504021
:1017A000A9F79E3F510570F060CFAACF5F3FECF3E1
:1017B000983EDCF3869577956795B795F795E7950D
:1017C0009F5FC1F7FE2B880F911D9695879597F91E
:1017D0000895283008F027E03327DA01990F311DEA
:1017E00087FD916000966105710539F432602E5FC6
:1017F0003D9330E32A95E1F708959F3F30F080381C
:101800007105610509F03C5F3C5F3D93913008F044
:101810008068911DDF93CF931F930F93FF92EF92F8
:10182000192F987F9695E92F96959695E90FFF27A2
:10183000E653FF4F99273327EE24FF24A701E70142
:1018400005900894079428F4360FE71EF81E491FE8
:10185000511D660F771F881F991F0694A1F70590E9
:10186000079428F4E70EF81E491F561FC11D770F75
:10187000881F991F661F0694A1F70590079428F406
:10188000F80E491F561FC71FD11D880F991F661FCD
:10189000771F0694A1F70590079420F4490F561F6F
:1018A000C71FD81F990F661F771F881F0694A9F7B7
:1018B00084911095177041F0D695C7955795479527
:1018C000F794E7941A95C1F7E0E7F0E06894159073
:1018D000159135916591959105907FE27395E11889
:1018E000F10A430B560BC90BD009C0F7E10CF11EEE
:1018F000431F561FC91FD01D7EF4703311F48A9503
:10190000E6CFE894015030F0080F0AF400270217E0
:1019100008F4202F2395022F7A3328F079E37D9362
:101920002A95E9F710C07D932A9589F60694979534
:101930006795379517951794E118F10A430B560BE5
:10194000C90BD00998F023957E9173957A3308F0EE
:1019500070E37C932013B8F77E9170617D9330F033
:10196000839571E37D9370E32A95E1F71124EF905D
:10197000FF900F911F91CF91DF91992787FD90954F
:101980000895803209F0911179C280528F55E0F7A5
:101990000895FC010590615070400110D8F78095C2
:1019A00090958E0F9F1F0895FC016150704001902B
:1019B0000110D8F7809590958E0F9F1F08950F9373
:1019C0001F93CF93DF93EC018B01009731F46115E6
:1019D000710519F480E090E038C06EE070E081E0BD
:1019E00090E00E94FB0DFC010097A1F380E8838347
:1019F0000115110571F01387028781E883838091B7
:101A0000F6019091F701892B21F4F093F701E0930F
:101A1000F6012097C9F0D187C087838182608383D4
:101A20008091F8019091F901892B71F4F093F901FB
:101A3000E093F8018091FA019091FB01892B21F448
:101A4000F093FB01E093FA01CF01DF91CF911F9159
:101A50000F9108950F931F93CF93DF93182F092FA2
:101A6000EB018B8181FD03C08FEF9FEF20C082FFD0
:101A700010C04E815F812C813D81421753077CF459
:101A8000E881F9819F012F5F3F4F398328831083BD
:101A900006C0E885F985812F0995892B29F72E81C4
:101AA0003F812F5F3F4F3F832E83812F902FDF9108
:101AB000CF911F910F910895A0E0B0E0E2E6FDE024
:101AC0000C94270AFE01359661917191AF018091C6
:101AD000F8019091F9010E949006E2E00C94430A0B
:101AE0000F931F93CF93DF93E091F801F091F901E9
:101AF000238121FF1BC0EC0100E010E0899160917F
:101B0000F8017091F901DB011896ED91FC9119979C
:101B1000882331F00995892B89F30FEF1FEFEECF62
:101B20008AE00995892B11F4C80102C08FEF9FEF5D
:101B3000DF91CF911F910F910895FA01AA272830C4
:101B400051F1203181F1E8946F936E7F6E5F7F4F8A
:101B50008F4F9F4FAF4FB1E03ED0B4E03CD0670F06
:101B6000781F891F9A1FA11D680F791F8A1F911D59
:101B7000A11D6A0F711D811D911DA11D20D009F4A9
:101B800068943F912AE0269F11243019305D3193EB
:101B9000DEF6CF010895462F4770405D4193B3E0D4
:101BA0000FD0C9F7F6CF462F4F70405D4A3318F07B
:101BB000495D31FD4052419302D0A9F7EACFB4E02C
:101BC000A6959795879577956795BA95C9F70097E4
:101BD0006105710508959B01AC010A2E0694579585
:101BE000479537952795BA95C9F7620F731F841FDC
:101BF000951FA01D08950F931F93CF93DF93869F8A
:101C00008001879F100D969F100D1124C8010E941E
:101C1000170EEC01009729F0A80160E070E00E9427
:101C2000410FCE01DF91CF911F910F910895CF9376
:101C3000DF938230910510F482E090E0E091FE01A4
:101C4000F091FF0120E030E0A0E0B0E0309739F102
:101C50004081518148175907B8F04817590771F466
:101C600082819381109729F013969C938E931297FB
:101C70002CC09093FF018093FE0127C021153105F0
:101C800031F04217530718F0A901DB0101C0EF0141
:101C90009A01BD01DF010280F381E02DD7CF21152C
:101CA0003105F9F0281B390B2430310580F48A8185
:101CB0009B816115710521F0FB019383828304C030
:101CC0009093FF018093FE01FE01329644C0FE0115
:101CD000E20FF31F819391932250310939832883B6
:101CE0003AC02091FC013091FD01232B41F4209159
:101CF0000201309103013093FD012093FC012091FA
:101D00000001309101012115310541F42DB73EB795
:101D10004091040150910501241B350BE091FC0119
:101D2000F091FD01E217F307A0F42E1B3F0B2817DB
:101D3000390778F0AC014E5F5F4F2417350748F044
:101D40004E0F5F1F5093FD014093FC0181939193CF
:101D500002C0E0E0F0E0CF01DF91CF910895CF9392
:101D6000DF93009709F487C0FC0132971382128237
:101D7000C091FE01D091FF01209781F42081318133
:101D8000280F391F8091FC019091FD018217930764
:101D900079F5F093FD01E093FC016DC0DE0120E0D8
:101DA00030E0AE17BF0750F412964D915C91139737
:101DB0009D014115510509F1DA01F3CFB383A283E7
:101DC00040815181840F951F8A179B0771F48D9173
:101DD0009C911197840F951F029691838083129690
:101DE0008D919C911397938382832115310529F45A
:101DF000F093FF01E093FE013EC0D9011396FC93DE
:101E0000EE9312974D915D91A40FB51FEA17FB0752
:101E100079F480819181840F951F0296D9011196E2
:101E20009C938E938281938113969C938E931297A9
:101E3000E0E0F0E08A819B81009719F0FE01EC015F
:101E4000F9CFCE01029628813981820F931F20910C
:101E5000FC013091FD012817390769F4309729F406
:101E60001092FF011092FE0102C013821282D093E1
:101E7000FD01C093FC01DF91CF9108959927882738
:101E80000895DC0101C06D9341505040E0F7089582
:041E9000F894FFCFF4
:101E94000000000220001048656C6C6F2C20776FE6
:101EA400726C6421001B5B39326D536937303231F7
:101EB40009007C2052483A09256709257509007CE8
:101EC4002054454D503A0925670925750A001B5BC6
:101ED40039346D43435338313109007C2065434F15
:101EE400323A0925750909007C2054564F433A09B2
:101EF40025750909007C206572726F722073746104
:101F04007475733A09307825303278090A004572BD
:101F1400726F722073746172742073656E736F7262
:101F24000053656E736F72207374617475732065EA
:101F340072726F7200536574206D6561737572659A
:101F4400206D6F6465206661696C6564007C204562
:101F54004E56573A09003078253032782530327899
:101F640009007C20454E56523A090030782530321B
:081F740078253032780A0000E4
:00000001FF
