:100000000C9434000C9451000C9451000C94510049
:100010000C9451000C9451000C9451000C9451001C
:100020000C9451000C9451000C9451000C9451000C
:100030000C9451000C9451000C9451000C945100FC
:100040000C9451000C9451000C9451000C945100EC
:100050000C9451000C9451000C9451000C945100DC
:100060000C9451000C94510011241FBECFEFD8E026
:10007000DEBFCDBF11E0A0E0B1E0E2ECFDE002C0E8
:1000800005900D92A833B107D9F721E0A8E3B1E0BC
:1000900001C01D92A434B207E1F70E94D7010C946D
:1000A000DF060C9400000E945D000E947401909392
:1000B0003D0180933C010C9489011092C50083E3BB
:1000C0008093C4001092C00088E18093C10086E054
:1000D0008093C20008958091C00087FF04C0809182
:1000E000C60090E008958FEF9FEF08958091C000C3
:1000F00087FFFCCF8091C60008950E947600992763
:1001000087FD90950895CF92DF92EF92FF92CF9363
:10011000DF93EC016A017B01C114D104E104F10415
:1001200049F00E947600899381E0C81AD108E1085D
:10013000F108F2CFDF91CF91FF90EF90DF90CF9059
:1001400008959091C00095FF06C08093C60099273E
:1001500087FD909508958FEF9FEF08959091C000CF
:1001600095FFFCCF8093C6000895CF93C82F8A30A7
:1001700019F48DE00E94B5008C2F0E94AE008C2FE8
:10018000992787FD9095CF910895CF92DF92EF92B6
:10019000FF92CF93DF93EC016A017B01C114D1047C
:1001A000E104F10449F089910E94AE0081E0C81A8F
:1001B000D108E108F108F2CFDF91CF91FF90EF90E5
:1001C000DF90CF9008950F931F93CF93DF93EC01AF
:1001D0008E018881882359F08A3019F48DE00E94BD
:1001E000AE002196F80180810E94AE00F1CFDF9130
:1001F000CF911F910F910895AF92BF92CF92DF924E
:10020000EF92FF921F93CF93DF9300D000D0CDB732
:10021000DEB75C014150510961097109C12CD12C33
:10022000760149835A836B837C830E947600182F62
:1002300049815A816B817C818D30F1F18F3719F0C2
:100240008A30B1F439C0C114D104E104F10449F396
:100250008FE749835A836B837C830E94AE00F1E071
:10026000AF1AB10881E0C81AD108E108F1081FC02F
:10027000992787FD909549835A836B837C830E94DD
:10028000510249815A816B817C81892B51F2C416BC
:10029000D506E606F70629F2812F0E94AE00F50189
:1002A00011935F01FFEFCF1ADF0AEF0AFF0A4981BE
:1002B0005A816B817C81B5CF8DE00E94AE008AE0CF
:1002C0000E94AE00F5011082C701B6010F900F9099
:1002D0000F900F90DF91CF911F91FF90EF90DF90E3
:1002E000CF90BF90AF9008958091380190913901DF
:1002F000892B51F46DE770E085EB90E00E94570286
:10030000909339018093380180913801909139019F
:10031000089582E08093B8001092B900089584EAAD
:100320008093BC008091BC0087FFFCCF089584E9D6
:100330008093BC008DE08A95F1F7000008958093CA
:10034000BB0084E88093BC008091BC0087FFFCCF99
:100350009091B900987F81E0903431F0983129F084
:10036000983219F080E0089508950895882311F0D7
:1003700084EC01C084E88093BC008091BC0087FFBE
:10038000FCCF8091BB000895CF93DF931F92CDB730
:10039000DEB789830E948F0189810E949F01898332
:1003A0000E94970189810F90DF91CF9108950E945B
:1003B00053002FEF8DE399E4215080409040E1F706
:1003C00000C0000086E091E00E94E80294E1E92E7E
:1003D00091E0F92E01E311E0FF92EF920E94D40226
:1003E0000F900F90C0E0D0E0DF93CF931F930F9357
:1003F0000E94D40221960F900F900F900F90C03161
:10040000D10591F760913C0170913D018AE090E047
:100410000E94A202C0E0D0E0DF93CF931F930F931E
:100420000E94D402CC2EC29480EFC8220F900F906D
:100430000F900F90D12C8D2D8C29880F0E94C40114
:1004400060913C0170913D01882319F088E790E0AC
:1004500002C08DE290E00E94A20260913C01709186
:100460003D0180E290E00E94A202D39480E1D81284
:10047000E2CF60913C0170913D018AE090E00E94E2
:10048000A2022196C830D10539F69FEF29E688E10E
:10049000915020408040E1F700C000009DCF8032A5
:1004A00009F09111D7C380528F55E0F708950F934B
:1004B0001F93CF93DF93EC018B01009731F461150B
:1004C000710519F480E090E038C06EE070E081E0E2
:1004D00090E00E94E704FC010097A1F380E8838389
:1004E0000115110571F01387028781E883838091DC
:1004F0003A0190913B01892B21F4F0933B01E09369
:100500003A012097C9F0D187C087838182608383B5
:1005100080913C0190913D01892B71F4F0933D0154
:10052000E0933C0180913E0190913F01892B21F4A1
:10053000F0933F01E0933E01CF01DF91CF911F91F6
:100540000F9108950F931F93CF93DF93182F092FC7
:10055000EB018B8181FD03C08FEF9FEF20C082FFF5
:1005600010C04E815F812C813D81421753077CF47E
:10057000E881F9819F012F5F3F4F398328831083E2
:1005800006C0E885F985812F0995892B29F72E81E9
:100590003F812F5F3F4F3F832E83812F902FDF912D
:1005A000CF911F910F910895A0E0B0E0EAEDF2E045
:1005B0000C94B806FE01359661917191AF0180915E
:1005C0003C0190913D010E941503E2E00C94D40699
:1005D0000F931F93CF93DF93E0913C01F0913D0186
:1005E000238121FF1BC0EC0100E010E089916091A4
:1005F0003C0170913D01DB011896ED91FC9119973A
:10060000882331F00995892B89F30FEF1FEFEECF87
:100610008AE00995892B11F4C80102C08FEF9FEF82
:10062000DF91CF911F910F910895ACE0B0E0EBE125
:10063000F3E00C94A8067C016B018A01FC0117828F
:100640001682838181FFBDC1CE0101964C01F70165
:100650009381F60193FD859193FF81916F0188232A
:1006600009F4ABC1853239F493FD859193FF8191F3
:100670006F01853229F4B70190E00E94A202E7CF12
:10068000512C312C20E02032A0F48B3269F030F470
:10069000803259F0833269F420612CC08D3239F0F8
:1006A000803339F4216026C02260246023C0286092
:1006B00021C027FD27C030ED380F3A3078F426FFEF
:1006C00006C0FAE05F9E300D1124532E13C08AE05D
:1006D000389E300D1124332E20620CC08E3221F44E
:1006E00026FD6BC1206406C08C3611F4206802C060
:1006F000883641F4F60193FD859193FF81916F0156
:100700008111C1CF982F9F7D9554933028F40C5FB1
:100710001F4FFFE3F9830DC0833631F0833771F04B
:10072000833509F05BC022C0F801808189830E5FA8
:100730001F4F44244394512C540115C03801F2E05A
:100740006F0E711CF801A080B18026FF03C0652DDB
:1007500070E002C06FEF7FEFC5012C870E943F065B
:100760002C0183012C852F77222E17C03801F2E04F
:100770006F0E711CF801A080B18026FF03C0652DAB
:1007800070E002C06FEF7FEFC5012C870E942D063D
:100790002C012C852068222E830123FC1BC0832D75
:1007A00090E048165906B0F4B70180E290E00E944C
:1007B000A2023A94F4CFF50127FC859127FE81919E
:1007C0005F01B70190E00E94A20231103A94F1E07B
:1007D0004F1A51084114510471F7E5C0843611F0E5
:1007E000893639F5F80127FF07C060817181828160
:1007F00093810C5F1F4F08C060817181882777FD4E
:100800008095982F0E5F1F4F2F76B22E97FF09C04D
:1008100090958095709561957F4F8F4F9F4F206881
:10082000B22E2AE030E0A4010E944A06A82EA818A1
:1008300044C0853729F42F7EB22E2AE030E025C04F
:10084000F22FF97FBF2E8F36C1F018F4883579F07A
:10085000B4C0803719F0883721F0AFC02F2F206146
:10086000B22EB4FE0DC08B2D8460B82E09C024FFBB
:100870000AC09F2F9660B92E06C028E030E005C060
:1008800020E130E002C020E132E0F801B7FE07C00D
:1008900060817181828193810C5F1F4F06C06081EE
:1008A000718180E090E00E5F1F4FA4010E944A0614
:1008B000A82EA818FB2DFF77BF2EB6FE0BC02B2D40
:1008C0002E7FA51450F4B4FE0AC0B2FC08C02B2D34
:1008D0002E7E05C07A2C2B2D03C07A2C01C0752CDE
:1008E00024FF0DC0FE01EA0DF11D8081803311F45B
:1008F000297E09C022FF06C07394739404C0822F1E
:10090000867809F0739423FD13C020FF06C05A2C8B
:10091000731418F4530C5718732C731468F4B7013C
:1009200080E290E02C870E94A20273942C85F5CF80
:10093000731410F4371801C0312C24FF12C0B70112
:1009400080E390E02C870E94A2022C8522FF17C032
:1009500021FF03C088E590E002C088E790E0B7017E
:100960000CC0822F867859F021FD02C080E201C0C0
:100970008BE227FD8DE2B70190E00E94A202A51450
:1009800038F4B70180E390E00E94A2025A94F7CFB6
:10099000AA94F401EA0DF11D8081B70190E00E9454
:1009A000A202A110F5CF332009F451CEB70180E2A5
:1009B00090E00E94A2023A94F6CFF70186819781D7
:1009C00002C08FEF9FEF2C96E2E10C94C4060F93C8
:1009D0001F93CF93DF93869F8001879F100D969F73
:1009E000100D1124C8010E940305EC01009729F0A5
:1009F000A80160E070E00E943806CE01DF91CF913F
:100A00001F910F910895CF93DF938230910510F4D9
:100A100082E090E0E0914201F091430120E030E07B
:100A2000A0E0B0E0309739F1408151814817590773
:100A3000B8F04817590771F482819381109729F013
:100A400013969C938E9312972CC09093430180939E
:100A5000420127C02115310531F04217530718F024
:100A6000A901DB0101C0EF019A01BD01DF01028094
:100A7000F381E02DD7CF21153105F9F0281B390B73
:100A80002430310580F48A819B816115710521F044
:100A9000FB019383828304C09093430180934201BE
:100AA000FE01329644C0FE01E20FF31F8193919341
:100AB00022503109398328833AC020914001309176
:100AC0004101232B41F42091020130910301309325
:100AD0004101209340012091000130910101211535
:100AE000310541F42DB73EB7409104015091050105
:100AF000241B350BE0914001F0914101E217F3070F
:100B0000A0F42E1B3F0B2817390778F0AC014E5F7D
:100B10005F4F2417350748F04E0F5F1F5093410178
:100B2000409340018193919302C0E0E0F0E0CF0157
:100B3000DF91CF910895CF93DF93009709F487C099
:100B4000FC01329713821282C0914201D09143017D
:100B5000209781F420813181280F391F8091400135
:100B6000909141018217930779F5F0934101E09349
:100B700040016DC0DE0120E030E0AE17BF0750F449
:100B800012964D915C9113979D014115510509F104
:100B9000DA01F3CFB383A28340815181840F951F83
:100BA0008A179B0771F48D919C911197840F951F63
:100BB00002969183808312968D919C9113979383D3
:100BC00082832115310529F4F0934301E09342011A
:100BD0003EC0D9011396FC93EE9312974D915D910F
:100BE000A40FB51FEA17FB0779F480819181840F68
:100BF000951F0296D90111969C938E9382819381C1
:100C000013969C938E931297E0E0F0E08A819B818B
:100C1000009719F0FE01EC01F9CFCE010296288170
:100C20003981820F931F2091400130914101281793
:100C3000390769F4309729F4109243011092420168
:100C400002C013821282D0934101C0934001DF9110
:100C5000CF910895992788270895FC010590615048
:100C600070400110D8F7809590958E0F9F1F0895C2
:100C7000DC0101C06D9341505040E0F70895FC0144
:100C80006150704001900110D8F7809590958E0FBB
:100C90009F1F0895FA01AA27283051F1203181F1D0
:100CA000E8946F936E7F6E5F7F4F8F4F9F4FAF4F74
:100CB000B1E03ED0B4E03CD0670F781F891F9A1F87
:100CC000A11D680F791F8A1F911DA11D6A0F711D3B
:100CD000811D911DA11D20D009F468943F912AE047
:100CE000269F11243019305D3193DEF6CF0108952F
:100CF000462F4770405D4193B3E00FD0C9F7F6CF60
:100D0000462F4F70405D4A3318F0495D31FD405227
:100D1000419302D0A9F7EACFB4E0A69597958795BD
:100D200077956795BA95C9F700976105710508959C
:100D30009B01AC010A2E0694579547953795279548
:100D4000BA95C9F7620F731F841F951FA01D0895E0
:100D50002F923F924F925F926F927F928F929F92CB
:100D6000AF92BF92CF92DF92EF92FF920F931F93B9
:100D7000CF93DF93CDB7DEB7CA1BDB0B0FB6F8946A
:100D8000DEBF0FBECDBF09942A88398848885F84AA
:100D90006E847D848C849B84AA84B984C884DF801B
:100DA000EE80FD800C811B81AA81B981CE0FD11DFF
:100DB0000FB6F894DEBF0FBECDBFED010895F894D5
:020DC000FFCF63
:100DC20000004401200048656C6C6F2C20776F7224
:100DD2006C6421000A2A2A2A2049324320414444D1
:100DE20052455353205343414E202A2A2A0A202097
:080DF2000025303178200000DB
:00000001FF
