:100000000C94B5000C94D2000C94D2000C94D20045
:100010000C94D2000C94D2000C94D2000C94D20018
:100020000C94D2000C94D2000C94D2000C94D20008
:100030000C94D2000C94D2000C94D2000C94D200F8
:100040000C94D2000C94D2000C94D2000C94D200E8
:100050000C94D2000C94D2000C94D2000C94D200D8
:100060000C94D2000C94D2006E616E00696E660032
:1000700000407A10F35A00A0724E18090010A5D45F
:10008000E80000E87648170000E40B54020000CABC
:100090009A3B000000E1F505000080969800000002
:1000A00040420F000000A086010000001027000061
:1000B0000000E803000000006400000000000A00E7
:1000C000000000000100000000002C76D888DC67EA
:1000D0004F0823DFC1DFAE59E1B1B796E5E3E45342
:1000E000C63AE651997696E8E6C28426EB898C9B5F
:1000F00062ED407C6FFCEFBC9C9F40F2BAA56FA5FF
:10010000F490055A2AF75C936B6CF9676DC11BFC80
:10011000E0E40D47FEF520E6B500D0ED902E03009B
:10012000943577050080841E080000204E0A0000E8
:1001300000C80C333333330F986E12831141EF8DA7
:100140002114893BE65516CFFEE6DB18D1844B38E7
:100150001BF77C1D901DA4BBE424203284725E2218
:100160008100C9F124ECA1E53D2711241FBECFEF8A
:10017000D8E0DEBFCDBF12E0A0E0B1E0E4E5FDE1F4
:1001800002C005900D92A431B107D9F722E0A4E195
:10019000B2E001C01D92A832B207E1F70E94360515
:1001A0000C94A80E0C9400000E94E0000E94F7013D
:1001B00090932102809320020E940C020C94F20280
:1001C0001092C5008CE08093C4001092C00088E1BA
:1001D0008093C10086E08093C20008958091C000A2
:1001E00087FF04C08091C60090E008958FEF9FEFD5
:1001F00008958091C00087FFFCCF8091C6000895CC
:100200000E94F900992787FD90950895CF92DF927B
:10021000EF92FF92CF93DF93EC016A017B01C1144F
:10022000D104E104F10449F00E94F900899381E0CE
:10023000C81AD108E108F108F2CFDF91CF91FF9001
:10024000EF90DF90CF9008959091C00095FF06C089
:100250008093C600992787FD909508958FEF9FEFB3
:1002600008959091C00095FFFCCF8093C60008953B
:10027000CF93C82F8A3019F48DE00E9438018C2F5B
:100280000E9431018C2F992787FD9095CF91089579
:10029000CF92DF92EF92FF92CF93DF93EC016A014E
:1002A0007B01C114D104E104F10449F089910E9459
:1002B000310181E0C81AD108E108F108F2CFDF91DD
:1002C000CF91FF90EF90DF90CF9008950F931F9301
:1002D000CF93DF93EC018E018881882359F08A3017
:1002E00019F48DE00E9431012196F80180810E946D
:1002F0003101F1CFDF91CF911F910F910895AF920E
:10030000BF92CF92DF92EF92FF921F93CF93DF9332
:1003100000D000D0CDB7DEB75C0141505109610972
:100320007109C12CD12C760149835A836B837C835C
:100330000E94F900182F49815A816B817C818D3090
:10034000F1F18F3719F08A30B1F439C0C114D104FA
:10035000E104F10449F38FE749835A836B837C837B
:100360000E943101F1E0AF1AB10881E0C81AD1084A
:10037000E108F1081FC0992787FD909549835A83AA
:100380006B837C830E94230C49815A816B817C8121
:10039000892B51F2C416D506E606F70629F2812FFD
:1003A0000E943101F50111935F01FFEFCF1ADF0ABF
:1003B000EF0AFF0A49815A816B817C81B5CF8DE0BC
:1003C0000E9431018AE00E943101F5011082C701CB
:1003D000B6010F900F900F900F90DF91CF911F916A
:1003E000FF90EF90DF90CF90BF90AF9008958091F5
:1003F000140290911502892B51F460E071E088E3BA
:1004000091E00E943F0C909315028093140280911A
:10041000140290911502089582E08093B800109222
:10042000B900089584EA8093BC008091BC0087FFE6
:10043000FCCF089584E98093BC008091BC0084FDCA
:10044000FCCF87EC90E00197F1F700C00000089521
:100450008093BB0084E88093BC008091BC0087FF40
:10046000FCCF9091B900987F81E0903431F09831C1
:1004700029F0983219F080E00895089508958823AE
:1004800011F084EC01C084E88093BC008091BC0032
:1004900087FFFCCF8091BB000895CF93DF931F921D
:1004A000CDB7DEB789830E94120289810E9428029B
:1004B00089830E941A0289810F90DF91CF9108955C
:1004C000EF92FF920F931F93CF93DF9300D000D052
:1004D0001F92CDB7DEB72C833D834B836A8389831C
:1004E0000E9412028981880F0E942802082F6A81C7
:1004F000862F0E94280291E02C813D814B81811141
:1005000090E011E0011110E0190F7901042F020FA2
:100510000E1551F0F70181917F010E94280291E0B0
:10052000811190E0190FF4CF0E941A0281E011119D
:1005300080E00F900F900F900F900F90DF91CF9170
:100540001F910F91FF90EF900895CF92DF92EF925D
:10055000FF920F931F93CF93DF931F92CDB7DEB718
:10056000E82E142FF22E032F69830E941202EE0C44
:100570008E2D0E942802D82E6981862F0E94280283
:1005800091E0811190E051E0D11050E0D92ED50ECC
:100590000E9412028E2D81600E94280291E081113A
:1005A00090E0D90E21F41150CF2CD02E04C00E941F
:1005B0001A028D2D0DC01F3F41F0812F0E943F0276
:1005C000F60181936F011150F6CF0E941A0281E06B
:1005D0000F90DF91CF911F910F91FF90EF90DF90DF
:1005E000CF900895089580E00895CF93DF931F92F0
:1005F000CDB7DEB79E012F5F3F4F41E060E08AE557
:100600000E94A502882311F0898101C080E00F902B
:10061000DF91CF910895CF93DF931F92CDB7DEB7CF
:100620009E012F5F3F4F41E061E08AE50E94A502F5
:10063000882311F0898101C080E00F90DF91CF9174
:1006400008950E94F50288700895CF93DF93EC011E
:100650009C0148E062E08AE50E94A50288819981B8
:10066000982789279827998388838A819B8198274F
:10067000892798279B838A838E819F819827892742
:1006800098279F838E83DF91CF91089586E091E034
:100690009F938F9389EB91E09F938F930E94BC0C63
:1006A0000E94F5021F921F921F928F9389EC91E096
:1006B0009F938F930E94BC0C0E940B031F921F926A
:1006C0001F928F9386EE91E09F938F930E94BC0CB4
:1006D0000E9421032DB73EB7205F3F4F0FB6F8941D
:1006E0003EBF0FBE2DBF882381F086E192E00E94BD
:1006F00025031F921F9280E092E09F938F930E94A8
:10070000BC0C0F900F900F900F9008950F931F93B4
:10071000CF93DF9300D0CDB7DEB79E012F5F3F4F61
:1007200042E065EE80E40E94A502098110E0102FEE
:1007300000278A81082B9E012F5F3F4F42E060EE29
:1007400080E40E94A502298130E0322F22274A81CD
:10075000B801C901842B0F900F90DF91CF911F91A9
:100760000F910895CF93DF931F92CDB7DEB79E010F
:100770002F5F3F4F41E067EE80E40E94A50288238F
:1007800011F0898101C080E00F90DF91CF91089531
:10079000CF93DF9300D0CDB7DEB79E012F5F3F4FE1
:1007A00042E063EE80E40E94A502898190E0982FE8
:1007B00088272A81822B0F900F90DF91CF91089587
:1007C000CF92DF92EF92FF920F931F93CF93DF931D
:1007D0001F92CDB7DEB7182F99830E94120280E8CE
:1007E0000E942802F82E9981892F0E94280291E008
:1007F000811190E021E0F11020E0F92EF20E812F1E
:100800000E94280221E0811120E0F20E0E941202D3
:1008100081E80E94280291E0811190E09F0DF9F497
:1008200016E0C12CD12C760103E0115098F0812FF5
:10083000602F0E948309911104C0812F0E943F0202
:10084000F4CFFE2CED2CDC2CCC24812F0E943F0217
:10085000C82AEBCF0E941A02B601C70104C060E0AB
:1008600070E080E090E00F90DF91CF911F910F91A9
:10087000FF90EF90DF90CF900895AF92BF92CF920C
:10088000DF92EF92FF920F931F93CF93DF938FE04E
:100890009AEF0E94E003DC01CB019C01AD0160E016
:1008A00070E080E090E000E20E94DA09D22EC32ED0
:1008B000B42EA52E7B01D82FC92F89EC9CEF0E9466
:1008C000E0038B019C01D62AC12AB22A5A2D532B50
:1008D0002D2D3C2D4B2DB7018D2F9C2FDF91CF91CE
:1008E0001F910F91FF90EF90DF90CF90BF90AF904E
:1008F00008951F93CF93DF931F92CDB7DEB7182FC4
:100900009E012F5F3F4F41E067EE80E40E94A50209
:10091000811102C080E029C0898117FF02C0846074
:1009200001C08B7F89839E012F5F3F4F41E066EEC0
:1009300080E40E946002882369F39E012F5F3F4F8D
:1009400041E061E180E40E94A502882319F3812F30
:100950008F709981907F892B89839E012F5F3F4FF4
:1009600041E061E580E40E9460020F90DF91CF9149
:100970001F91089599E080E0915069F0189BFECF97
:1009800025E82A95F1F7000023B1880F2170822B0A
:100990001899FECFF1CF0895EF92FF920F931F9316
:1009A000CF93DF9300D000D01F92CDB7DEB7189B56
:1009B000FECF2898209A8FEC97E00197F1F700C0BE
:1009C00000002098289A90E59A95F1F785E18150EA
:1009D00061F0189905C0189BFECF1899FECF0BC087
:1009E0009AE19A95F1F700C0F2CF1A8219821C821F
:1009F0001B828FEF18C00E94BA04E82E0E94BA042E
:100A0000F12CFE2CEE24E82A0E94BA04082F0E9442
:100A1000BA0410E0102F0027082B0E94BA04FA82B3
:100A2000E9821C830B838D8329813A814B815C8110
:100A30006D8170E080E090E00F900F900F900F902C
:100A40000F90DF91CF911F910F91FF90EF9008953C
:100A5000FC01DC0185E090E0815019F02D91920FAE
:100A6000FBCF81E02481921380E00895CF93DF9340
:100A700000D000D01F92CDB7DEB70E94D4002FEF78
:100A80003DE389E4215030408040E1F700C00000A0
:100A900080E291E00E94D00C80E00E9479048AE01C
:100AA000C82ED12C93E4A92E91E0B92E23E5822EF5
:100AB00021E0922E35E6E32E31E0F32E0EE811E030
:100AC0004DE9242E41E0342E8EE291E00E94D00CBC
:100AD0000E94CC0429833A834B835C836D83C901D4
:100AE000B6010E948F099F938F937F936F933F93DB
:100AF0002F93BF92AF920E94BC0C2B813C81C90105
:100B0000B6010E948F099F938F937F936F933F93BA
:100B10002F939F928F920E94BC0CCE0101960E944F
:100B200028050FB6F894DEBF0FBECDBF882319F09D
:100B300082E191E002C089E191E09F938F938D81E2
:100B40001F928F93FF92EF920E94BC0C89E791E075
:100B50000E94D00C0E94B2031F928F931F930F9399
:100B60000E94BC0C0E9486032B013C0180E090E0B7
:100B70000E94580A20E030E04AEF52E40E94E60A60
:100B800020E030E040E857E30E94E60A20E030E051
:100B900040EC50E40E94F3099F938F937F936F93EF
:100BA0005F924F923F922F920E94BC0CB30180E063
:100BB00090E00E94580A22E538EB4FE253E40E948D
:100BC000E60A20E030E040E857E30E94E60A26E625
:100BD00036E64BE352E40E94F3099F938F937F9391
:100BE0006F937F926F92AAEAB1E0BF93AF930E9496
:100BF000BC0C3FEF83ED90E3315080409040E1F733
:100C000000C000000FB6F894DEBF0FBECDBF5CCFB2
:100C1000A3E1B0E0EEE0F6E00C94A3097C011B0137
:100C20006A01FC0117821682838181FF66C3BE01BF
:100C30006F5F7F4F4B01F7019381F10193FD859128
:100C400093FF81911F01882309F453C3853239F43E
:100C500093FD859193FF81911F01853239F4B7018E
:100C600090E00E948A0C56016501E5CF10E0512CFE
:100C700020E02032A0F48B3269F030F4803259F059
:100C8000833269F420612CC08D3239F0803339F41D
:100C9000216026C02260246023C0286021C027FD77
:100CA00027C030ED380F3A3078F426FF06C0FAE05E
:100CB0001F9F300D1124132F13C06AE0569E300D74
:100CC0001124532E20620CC08E3221F426FD11C354
:100CD000206406C08C3611F4206802C0883641F4C6
:100CE000F10193FD859193FF81911F018111C1CF86
:100CF0009BEB980F933018F42061805E06C09BE94F
:100D0000980F933008F0AAC12F7E26FF16E02F73AC
:100D1000722E853621F4F22FF0647F2E08C08636BD
:100D200021F4622F6068762E02C01111115077FEF7
:100D300007C01C3348F444244394410E27E00BC001
:100D4000183030F4212F06C027E04CE3442E03C0B6
:100D500027E017E0412C560174E0A70EB11CF60104
:100D60006081718182819381042DA4010E94490BCD
:100D70006C01098100FF02C003FF06C071FC07C0BF
:100D800072FC08C0612C08C03DE2632E05C02BE256
:100D9000622E02C090E2692E802F8C7099F166203D
:100DA00011F084E001C083E0851510F0512C0BC0D8
:100DB000581A73FC08C0B70180E290E00E948A0CC8
:100DC0005A94C9F7F3CF662029F0B701862D90E039
:100DD0000E948A0C03FD03C00CE610E002C008E686
:100DE00010E0F72DF0717F2EF8018491882309F42B
:100DF00076C271108052B70190E00E948A0C0F5F9A
:100E00001F4FF2CF77FE0FC04C0C04FF04C08A8145
:100E1000813309F44A94141474F5F8E0F41578F564
:100E200088E0482E2CC076FC2AC0812F90E08C15DB
:100E30009D059CF06CEFC6166FEFD60674F0772D0B
:100E40007068772E0AC0E2E0F0E0EC0FFD1FE10FC2
:100E5000F11D8081803319F411501111F4CF77FE08
:100E60000EC044244394410E812F90E0C816D90649
:100E70002CF41C1904C04424439401C010E077FEF4
:100E800007C01C141D043CF496012F5F3F4F05C0A2
:100E900025E030E002C021E030E0662011F02F5F55
:100EA0003F4F112331F0412F50E04F5F5F4F240F30
:100EB000351F452D50E02417350714F4521A01C090
:100EC000512C872D897049F4552039F0B70180E203
:100ED00090E00E948A0C5A94F7CF662029F0B7015F
:100EE000862D90E00E948A0C73FC09C0552039F0D1
:100EF000B70180E390E00E948A0C5A94F7CF77FE06
:100F00005FC09C2D8D2DD7FE02C090E080E0692E41
:100F1000782E40E050E0C601841991099D878C87A6
:100F2000960126193709280D391D812F90E0EE27EB
:100F3000FF27E81BF90BFF87EE87FFEF6F167F0691
:100F400069F4B7018EE290E02B8B3A8B488B598B7A
:100F50000E948A0C598948893A892B89C614D7047A
:100F600054F06C857D85661577052CF4F901E40F46
:100F7000F51F818101C080E371E0671A71084F5F3E
:100F80005F4FEE85FF856E167F066CF0B70190E02F
:100F90002B8B3A8B488B598B0E948A0C2B893A8970
:100FA00048895989CACF6C147D0439F49A819633E3
:100FB00018F4953311F404FF81E3B70190E04BC0BE
:100FC0008A81813309F00F7EB70190E00E948A0C7C
:100FD000111105C074FE18C085E490E017C0B70178
:100FE0008EE290E00E948A0C82E066246394680E90
:100FF000F401E80FF11D8081B70190E00E948A0C96
:10100000115041F3862DF1CF85E690E0B7010E94A3
:101010008A0CD7FC05C0C114D10439F404FF05C003
:10102000D194C194D1088DE201C08BE2B70190E068
:101030000E948A0C80E36AE0C616D1042CF08F5F10
:10104000FAE0CF1AD108F7CFB70190E00E948A0CDE
:10105000B701C601C0960E948A0C41C1833631F0A7
:10106000833779F0833509F058C021C0560172E00A
:10107000A70EB11CF6018081898301E010E06401B4
:1010800014C05601F2E0AF0EB11CF601C080D18051
:1010900026FF03C0612F70E002C06FEF7FEFC60133
:1010A0002B8B0E94340C8C012B892F7715C0560195
:1010B000F2E0AF0EB11CF601C080D18026FF03C064
:1010C000612F70E002C06FEF7FEFC6012B8B0E9493
:1010D000290C8C012B892068722E23FD1AC0852DC6
:1010E00090E008171907A8F4B70180E290E00E9489
:1010F0008A0C5A94F4CFF60177FC859177FE8191A2
:101100006F01B70190E00E948A0C51105A9401506F
:1011100011090115110579F7E2C0843611F08936FD
:1011200051F5560127FF09C0F4E0AF0EB11CF601DE
:1011300060817181828193810AC0F2E0AF0EB11C9F
:10114000F60160817181882777FD8095982F022FA5
:101150000F7697FF08C090958095709561957F4FA9
:101160008F4F9F4F00682AE030E0A4010E94FD0CE1
:10117000C82EC8183EC0022F853721F40F7E2AE002
:1011800030E01DC0097F8F3691F018F4883559F092
:10119000B0C0803719F0883711F0ABC0006104FF90
:1011A00009C0046007C024FF08C0066006C028E02C
:1011B00030E005C020E130E002C020E132E056011D
:1011C00007FF09C0F4E0AF0EB11CF6016081718128
:1011D0008281938108C0F2E0AF0EB11CF6016081FC
:1011E000718180E090E0A4010E94FD0CC82EC81817
:1011F0000F7706FF0BC0202F2E7FC11650F404FF7F
:101200000AC002FD08C0202F2E7E05C0DC2C202F36
:1012100003C0DC2C01C0D12E24FF0DC0FE01EC0D5B
:10122000F11D8081803311F4297E09C022FF06C0A0
:10123000D394D39404C0822F867809F0D39423FDED
:1012400013C020FF06C01C2DD51418F4150D1D1950
:10125000D52CD51468F4B70180E290E02B8B0E9466
:101260008A0CD3942B89F5CFD51410F45D1801C0E6
:10127000512C24FF12C0B70180E390E02B8B0E9419
:101280008A0C2B8922FF17C021FF03C088E590E05C
:1012900002C088E790E0B7010CC0822F867859F031
:1012A00021FD02C080E201C08BE227FD8DE2B70183
:1012B00090E00E948A0CC11638F4B70180E390E0F8
:1012C0000E948A0C1150F7CFCA94F401EC0DF11D65
:1012D0008081B70190E00E948A0CC110F5CF5520A3
:1012E00009F4C2CCB70180E290E00E948A0C5A94C3
:1012F000F6CFF7018681978102C08FEF9FEF63964B
:10130000E2E10C94BF09991B79E004C0991F96177C
:1013100008F0961B881F7A95C9F780950895AA1B37
:10132000BB1B51E107C0AA1FBB1FA617B70710F0D0
:10133000A61BB70B881F991F5A95A9F78095909502
:10134000BC01CD0108952F923F924F925F926F9210
:101350007F928F929F92AF92BF92CF92DF92EF9245
:10136000FF920F931F93CF93DF93CDB7DEB7CA1BC6
:10137000DB0B0FB6F894DEBF0FBECDBF09942A88F1
:10138000398848885F846E847D848C849B84AA8499
:10139000B984C884DF80EE80FD800C811B81AA8126
:1013A000B981CE0FD11D0FB6F894DEBF0FBECDBFF1
:1013B000ED0108950F93083090F0982F872F762F26
:1013C000652F542F432F322F22270850F4CF220F9E
:1013D000331F441F551F661F771F881F991F0A95CB
:1013E000B2F70F9108955058BB27AA270ED0B4C06A
:1013F000A5D030F0AAD020F031F49F3F11F41EF4B4
:101400009AC00EF4E095E7FB90C0E92FB6D080F3C8
:10141000BA17620773078407950718F071F49EF5F1
:10142000CEC00EF4E0950B2EBA2FA02D0B01B90102
:1014300090010C01CA01A0011124FF27591B99F04A
:10144000593F50F4503E68F11A16F040A22F232F56
:10145000342F4427585FF3CF469537952795A795A6
:10146000F0405395C9F77EF41F16BA0B620B730B4D
:10147000840BBAF09150A1F0FF0FBB1F661F771FBE
:10148000881FC2F70EC0BA0F621F731F841F48F473
:10149000879577956795B795F7959E3F08F0B3CFF9
:1014A0009395880F08F09927EE0F979587950895E3
:1014B000E89409C097FB3EF49095809570956195EE
:1014C0007F4F8F4F9F4F9923A9F0F92F96E9BB27A4
:1014D0009395F695879577956795B795F111F8CF20
:1014E000FAF4BB0F11F460FF1BC06F5F7F4F8F4F8B
:1014F0009F4F16C0882311F096E911C0772321F081
:101500009EE8872F762F05C0662371F096E8862F18
:1015100070E060E02AF09A95660F771F881FDAF76F
:10152000880F9695879597F9089597F99F6780E8B2
:1015300070E060E008959FEF80EC089500240A9425
:101540001616170618060906089500240A9412169E
:101550001306140605060895092E0394000C11F4D1
:10156000882352F0BB0F40F4BF2B11F460FF04C07E
:101570006F5F7F4F8F4F9F4F089557FD9058440FD7
:10158000551F59F05F3F71F04795880F97FB991FE2
:1015900061F09F3F79F0879508951216130614069F
:1015A000551FF2CF4695F1DF08C01616170618062C
:1015B000991FF1CF86957105610508940895E89407
:1015C000BB2766277727CB0197F908950BD0C4CFA7
:1015D000B5DF28F0BADF18F0952309F0A6CFABCF1E
:1015E0001124EECFCADFA0F3959FD1F3950F50E001
:1015F000551F629FF001729FBB27F00DB11D639FC5
:10160000AA27F00DB11DAA1F649F6627B00DA11D6A
:10161000661F829F2227B00DA11D621F739FB00D10
:10162000A11D621F839FA00D611D221F749F332780
:10163000A00D611D231F849F600D211D822F762F19
:101640006A2F11249F5750408AF0E1F088234AF016
:10165000EE0FFF1FBB1F661F771F881F9150504062
:10166000A9F79E3F510570F060CFAACF5F3FECF322
:10167000983EDCF3869577956795B795F795E7954E
:101680009F5FC1F7FE2B880F911D9695879597F95F
:101690000895283008F027E03327DA01990F311D2B
:1016A00087FD916000966105710539F432602E5F07
:1016B0003D9330E32A95E1F708959F3F30F080385D
:1016C0007105610509F03C5F3C5F3D93913008F086
:1016D0008068911DDF93CF931F930F93FF92EF923A
:1016E000192F987F9695E92F96959695E90FFF27E4
:1016F000E653FF4F99273327EE24FF24A701E70184
:1017000005900894079428F4360FE71EF81E491F29
:10171000511D660F771F881F991F0694A1F705902A
:10172000079428F4E70EF81E491F561FC11D770FB6
:10173000881F991F661F0694A1F70590079428F447
:10174000F80E491F561FC71FD11D880F991F661F0E
:10175000771F0694A1F70590079420F4490F561FB0
:10176000C71FD81F990F661F771F881F0694A9F7F8
:1017700084911095177041F0D695C7955795479568
:10178000F794E7941A95C1F7E0E7F0E068941590B4
:10179000159135916591959105907FE27395E118CA
:1017A000F10A430B560BC90BD009C0F7E10CF11E2F
:1017B000431F561FC91FD01D7EF4703311F48A9544
:1017C000E6CFE894015030F0080F0AF40027021722
:1017D00008F4202F2395022F7A3328F079E37D93A4
:1017E0002A95E9F710C07D932A9589F60694979576
:1017F0006795379517951794E118F10A430B560B27
:10180000C90BD00998F023957E9173957A3308F02F
:1018100070E37C932013B8F77E9170617D9330F074
:10182000839571E37D9370E32A95E1F71124EF909E
:10183000FF900F911F91CF91DF91992787FD909590
:101840000895803209F0911179C280528F55E0F7E6
:101850000895FC010590615070400110D8F7809503
:1018600090958E0F9F1F0895FC016150704001906C
:101870000110D8F7809590958E0F9F1F08950F93B4
:101880001F93CF93DF93EC018B01009731F4611527
:10189000710519F480E090E038C06EE070E081E0FE
:1018A00090E00E945B0DFC010097A1F380E8838328
:1018B0000115110571F01387028781E883838091F8
:1018C0001E0290911F02892B21F4F0931F02E093D6
:1018D0001E022097C9F0D187C087838182608383ED
:1018E0008091200290912102892B71F4F0932102C2
:1018F000E09320028091220290912302892B21F40F
:10190000F0932302E0932202CF01DF91CF911F9148
:101910000F9108950F931F93CF93DF93182F092FE3
:10192000EB018B8181FD03C08FEF9FEF20C082FF11
:1019300010C04E815F812C813D81421753077CF49A
:10194000E881F9819F012F5F3F4F398328831083FE
:1019500006C0E885F985812F0995892B29F72E8105
:101960003F812F5F3F4F3F832E83812F902FDF9149
:10197000CF911F910F910895A0E0B0E0E2ECFCE060
:101980000C94B309FE01359661917191AF0180917C
:101990002002909121020E940806E2E00C94CF09F7
:1019A0000F931F93CF93DF93E0912002F0912102D8
:1019B000238121FF1BC0EC0100E010E089916091C0
:1019C000200270912102DB011896ED91FC9119978C
:1019D000882331F00995892B89F30FEF1FEFEECFA4
:1019E0008AE00995892B11F4C80102C08FEF9FEF9F
:1019F000DF91CF911F910F910895FA01AA27283006
:101A000051F1203181F1E8946F936E7F6E5F7F4FCB
:101A10008F4F9F4FAF4FB1E03ED0B4E03CD0670F47
:101A2000781F891F9A1FA11D680F791F8A1F911D9A
:101A3000A11D6A0F711D811D911DA11D20D009F4EA
:101A400068943F912AE0269F11243019305D31932C
:101A5000DEF6CF010895462F4770405D4193B3E015
:101A60000FD0C9F7F6CF462F4F70405D4A3318F0BC
:101A7000495D31FD4052419302D0A9F7EACFB4E06D
:101A8000A6959795879577956795BA95C9F7009725
:101A90006105710508959B01AC010A2E06945795C6
:101AA000479537952795BA95C9F7620F731F841F1D
:101AB000951FA01D08950F931F93CF93DF93869FCB
:101AC0008001879F100D969F100D1124C8010E9460
:101AD000770DEC01009729F0A80160E070E00E940A
:101AE000A10ECE01DF91CF911F910F910895CF9359
:101AF000DF938230910510F482E090E0E0912602BD
:101B0000F091270220E030E0A0E0B0E0309739F11A
:101B10004081518148175907B8F04817590771F4A7
:101B200082819381109729F013969C938E9312973C
:101B30002CC0909327028093260227C021153105DF
:101B400031F04217530718F0A901DB0101C0EF0182
:101B50009A01BD01DF010280F381E02DD7CF21156D
:101B60003105F9F0281B390B2430310580F48A81C6
:101B70009B816115710521F0FB019383828304C071
:101B80009093270280932602FE01329644C0FE0104
:101B9000E20FF31F819391932250310939832883F7
:101BA0003AC02091240230912502232B41F4209148
:101BB00002013091030130932502209324022091E9
:101BC0000001309101012115310541F42DB73EB7D7
:101BD0004091040150910501241B350BE091240232
:101BE000F0912502E217F307A0F42E1B3F0B2817F4
:101BF000390778F0AC014E5F5F4F2417350748F086
:101C00004E0F5F1F509325024093240281939193BE
:101C100002C0E0E0F0E0CF01DF91CF910895CF93D3
:101C2000DF93009709F487C0FC0132971382128278
:101C3000C0912602D0912702209781F42081318122
:101C4000280F391F80912402909125028217930753
:101C500079F5F0932502E09324026DC0DE0120E0C7
:101C600030E0AE17BF0750F412964D915C91139778
:101C70009D014115510509F1DA01F3CFB383A28328
:101C800040815181840F951F8A179B0771F48D91B4
:101C90009C911197840F951F0296918380831296D1
:101CA0008D919C911397938382832115310529F49B
:101CB000F0932702E09326023EC0D9011396FC93CD
:101CC000EE9312974D915D91A40FB51FEA17FB0794
:101CD00079F480819181840F951F0296D901119624
:101CE0009C938E938281938113969C938E931297EB
:101CF000E0E0F0E08A819B81009719F0FE01EC01A1
:101D0000F9CFCE01029628813981820F931F20914D
:101D10002402309125022817390769F4309729F4F5
:101D2000109227021092260202C013821282D093D0
:101D30002502C0932402DF91CF9108959927882727
:101D40000895DC0101C06D9341505040E0F70895C3
:041D5000F894FFCF35
:101D54000000280220006363733831315F746573B7
:101D64007400706173736564006661696C65640016
:101D740048656C6C6F2C20776F726C6421001B5B60
:101D840039316D0A2A2A2A20414D32333032202A31
:101D94002A2A0052483A092575097C2025752E25E2
:101DA400750A0054454D503A092575097C2025755E
:101DB4002E25750A005061726974793A20307825AD
:101DC4003032782C2025730A001B5B39326D0A2AC5
:101DD4002A2A20536937303231202A2A2A005553BF
:101DE4004552313A093078253032780A0052483A5F
:101DF400092575097C2025670A0054454D503A0988
:101E04002575097C2025670A000A1B5B313B3336A4
:101E14006D25731B5B306D0A004343533831312009
:101E24007374617475733A20253032782C20282518
:101E3400303278290A00434353383131206D6F64BE
:101E4400653A2025303278202825303278290A0056
:101E54004343533831312064617461202825303282
:041E640078290A00CF
:00000001FF
