:100000000C9434000C9451000C9451000C94510049
:100010000C9451000C9451000C9451000C9451001C
:100020000C9451000C9451000C9451000C9451000C
:100030000C9451000C9451000C9451000C945100FC
:100040000C9451000C9451000C9451000C945100EC
:100050000C9451000C9451000C9451000C945100DC
:100060000C9451000C94510011241FBECFEFD8E026
:10007000DEBFCDBF11E0A0E0B1E0EEEDFFE002C0D9
:1000800005900D92AE3BB107D9F721E0AEEBB1E0A0
:1000900001C01D92AB3DB207E1F70E94EC020C9447
:1000A000ED070C9400000E945F000E94760190937F
:1000B000D4018093D3010E948B010C94EE01109225
:1000C000C5008CE08093C4001092C00088E180934A
:1000D000C10086E08093C20008958091C00087FF30
:1000E00004C08091C60090E008958FEF9FEF0895BF
:1000F0008091C00087FFFCCF8091C60008950E94C8
:100100007800992787FD90950895CF92DF92EF921E
:10011000FF92CF93DF93EC016A017B01C114D104FC
:10012000E104F10449F00E947800899381E0C81A43
:10013000D108E108F108F2CFDF91CF91FF90EF9065
:10014000DF90CF9008959091C00095FF06C08093F6
:10015000C600992787FD909508958FEF9FEF08952A
:100160009091C00095FFFCCF8093C6000895CF9377
:10017000C82F8A3019F48DE00E94B7008C2F0E949E
:10018000B0008C2F992787FD9095CF910895CF923D
:10019000DF92EF92FF92CF93DF93EC016A017B0134
:1001A000C114D104E104F10449F089910E94B00026
:1001B00081E0C81AD108E108F108F2CFDF91CF91B0
:1001C000FF90EF90DF90CF9008950F931F93CF9300
:1001D000DF93EC018E018881882359F08A3019F46D
:1001E0008DE00E94B0002196F80180810E94B0004D
:1001F000F1CFDF91CF911F910F910895AF92BF92F0
:10020000CF92DF92EF92FF921F93CF93DF9300D0B4
:1002100000D0CDB7DEB75C014150510961097109C9
:10022000C12CD12C760149835A836B837C830E9435
:100230007800182F49815A816B817C818D30F1F1D2
:100240008F3719F08A30B1F439C0C114D104E104F8
:10025000F10449F38FE749835A836B837C830E94BF
:10026000B000F1E0AF1AB10881E0C81AD108E10886
:10027000F1081FC0992787FD909549835A836B83A6
:100280007C830E945F0349815A816B817C81892B29
:1002900051F2C416D506E606F70629F2812F0E9410
:1002A000B000F50111935F01FFEFCF1ADF0AEF0AEB
:1002B000FF0A49815A816B817C81B5CF8DE00E9414
:1002C000B0008AE00E94B000F5011082C701B601BB
:1002D0000F900F900F900F90DF91CF911F91FF9093
:1002E000EF90DF90CF90BF90AF9008958091C601BE
:1002F0009091C701892B51F46FE770E087EB90E094
:100300000E9465039093C7018093C6018091C60146
:100310009091C701089582E08093B8001092B900CF
:10032000089584EA8093BC008091BC0087FFFCCFD5
:10033000089584E98093BC008091BC0084FDFCCFCB
:1003400008958091B9001F928F9386E091E09F936A
:100350008F9388E591E09F938F930E94E2030F9023
:100360000F900F900F900F900F9008958093BB0007
:1003700084E88093BC008091BC0087FFFCCF909103
:10038000B900987F81E0903431F0983129F09832AB
:1003900019F080E0089508950895882311F084EC01
:1003A00001C084E88093BC008091BC0087FFFCCF33
:1003B0008091BB000895CF93DF931F92CDB7DEB736
:1003C00089830E94910189810E94B60189830E94DC
:1003D000990189810F90DF91CF91089508958091BF
:1003E000D00108950F931F93CF93DF931F92CDB742
:1003F000DEB7082F1092D0010E9491011091D00118
:1004000084EB0E94B60191E0811190E0190F1093E6
:10041000D001802F0E94B60191E0811190E0910FF0
:100420009093D0010E9491011091D00185EB0E9420
:10043000B60191E0811190E0910F9093D001992342
:1004400019F00E9499010AC081E00E94CD018983C0
:100450000E9499019091D0018981911180E00F90C3
:10046000DF91CF911F910F910895FF920F931F93EA
:10047000CF93DF93D82F162FF42E052F1092D00193
:100480000E949101C091D00184EB0E94B60191E0DD
:10049000811190E0C90FC093D0018D2F0E94B60149
:1004A00091E0811190E0C90FC093D0010E949101A9
:1004B000C091D00185EB0E94B60191E0811190E0DE
:1004C0009C0F9093D00191110BC01150CF2DD02FC4
:1004D0001F3F31F0812F0E94CD0189931150F8CF39
:1004E0000E9499018091D001DF91CF911F910F91CE
:1004F000FF90089580E00C94F20181E00C94F201E9
:100500000E947A0288700895CF93DF93EC01AC01CA
:1005100068E082E00E9435028881998198278927C6
:100520009827998388838A819B8198278927982790
:100530009B838A838E819F819827892798279F8311
:100540008E83DF91CF910895CF9381E191E09F93C6
:100550008F9382E691E09F938F930E94E203C09174
:10056000D0010E947A021F92CF931F928F9382E74D
:1005700091E09F938F930E94E203C091D0010E946B
:100580007D021F92CF931F928F938FE891E09F93EC
:100590008F930E94E2030E9480022DB73EB7205F36
:1005A0003F4F0FB6F8943EBF0FBE2DBF882391F08A
:1005B00088EC91E00E9484028091D0011F928F9379
:1005C00089EA91E09F938F930E94E2030F900F902E
:1005D0000F900F90CF9108950E9453002FEF83ED5D
:1005E00090E3215080409040E1F700C000008DE191
:1005F00091E00E94F6030BE211E085E3E82E81E032
:10060000F82E9FE3C92E91E0D92E2FE4A22E21E0EF
:10061000B22E0E948002882309F445C08EEB91E03F
:100620000E9484020E94EF0181113DC08091BF01B0
:100630008F938091BE018F931F930F930E94E203CB
:100640008091C1018F938091C0018F93FF92EF92AF
:100650000E94E2038091C3011F928F93DF92CF9299
:100660000E94E203CEEBD1E08DB79EB70C960FB699
:10067000F8949EBF0FBE8DBF89911F928F93BF923A
:10068000AF920E94E2030F900F900F900F9091E0B5
:10069000C63CD90789F76091D3017091D4018AE0F3
:1006A00090E00E94B0032FEF80E792E0215080405D
:1006B0009040E1F700C00000ACCF803209F091110A
:1006C000D7C380528F55E0F708950F931F93CF93B0
:1006D000DF93EC018B01009731F46115710519F47A
:1006E00080E090E038C06EE070E081E090E00E9431
:1006F000F505FC010097A1F380E88383011511053E
:1007000071F01387028781E883838091D1019091F2
:10071000D201892B21F4F093D201E093D1012097EB
:10072000C9F0D187C0878381826083838091D301A0
:100730009091D401892B71F4F093D401E093D3010B
:100740008091D5019091D601892B21F4F093D601A7
:10075000E093D501CF01DF91CF911F910F910895C3
:100760000F931F93CF93DF93182F092FEB018B81EA
:1007700081FD03C08FEF9FEF20C082FF10C04E812C
:100780005F812C813D81421753077CF4E881F98118
:100790009F012F5F3F4F39832883108306C0E88570
:1007A000F985812F0995892B29F72E813F812F5FAC
:1007B0003F4F3F832E83812F902FDF91CF911F9149
:1007C0000F910895A0E0B0E0E8EEF3E00C94C607C6
:1007D000FE01359661917191AF018091D3019091A5
:1007E000D4010E942304E2E00C94E2070F931F93CC
:1007F000CF93DF93E091D301F091D401238121FFC6
:100800001BC0EC0100E010E089916091D301709170
:10081000D401DB011896ED91FC911997882331F0F2
:100820000995892B89F30FEF1FEFEECF8AE0099529
:10083000892B11F4C80102C08FEF9FEFDF91CF9198
:100840001F910F910895ACE0B0E0E9E2F4E00C9460
:10085000B6077C016B018A01FC0117821682838135
:1008600081FFBDC1CE0101964C01F7019381F601D4
:1008700093FD859193FF81916F01882309F4ABC1AA
:10088000853239F493FD859193FF81916F01853213
:1008900029F4B70190E00E94B003E7CF512C312C2E
:1008A00020E02032A0F48B3269F030F4803259F02D
:1008B000833269F420612CC08D3239F0803339F4F1
:1008C000216026C02260246023C0286021C027FD4B
:1008D00027C030ED380F3A3078F426FF06C0FAE032
:1008E0005F9E300D1124532E13C08AE0389E300DC8
:1008F0001124332E20620CC08E3221F426FD6BC1F0
:10090000206406C08C3611F4206802C0883641F499
:10091000F60193FD859193FF81916F018111C1CF04
:10092000982F9F7D9554933028F40C5F1F4FFFE361
:10093000F9830DC0833631F0833771F0833509F0C8
:100940005BC022C0F801808189830E5F1F4F442461
:100950004394512C540115C03801F2E06F0E711C04
:10096000F801A080B18026FF03C0652D70E002C0B1
:100970006FEF7FEFC5012C870E944D072C0183018B
:100980002C852F77222E17C03801F2E06F0E711CD4
:10099000F801A080B18026FF03C0652D70E002C081
:1009A0006FEF7FEFC5012C870E943B072C012C8540
:1009B0002068222E830123FC1BC0832D90E0481663
:1009C0005906B0F4B70180E290E00E94B0033A9477
:1009D000F4CFF50127FC859127FE81915F01B701D6
:1009E00090E00E94B00331103A94F1E04F1A5108A0
:1009F0004114510471F7E5C0843611F0893639F598
:100A0000F80127FF07C060817181828193810C5FAB
:100A10001F4F08C060817181882777FD8095982FCE
:100A20000E5F1F4F2F76B22E97FF09C090958095CD
:100A3000709561957F4F8F4F9F4F2068B22E2AE0AF
:100A400030E0A4010E945807A82EA81844C085379A
:100A500029F42F7EB22E2AE030E025C0F22FF97F54
:100A6000BF2E8F36C1F018F4883579F0B4C08037C6
:100A700019F0883721F0AFC02F2F2061B22EB4FEBD
:100A80000DC08B2D8460B82E09C024FF0AC09F2F93
:100A90009660B92E06C028E030E005C020E130E0C5
:100AA00002C020E132E0F801B7FE07C06081718129
:100AB000828193810C5F1F4F06C06081718180E04D
:100AC00090E00E5F1F4FA4010E945807A82EA8189F
:100AD000FB2DFF77BF2EB6FE0BC02B2D2E7FA5144E
:100AE00050F4B4FE0AC0B2FC08C02B2D2E7E05C007
:100AF0007A2C2B2D03C07A2C01C0752C24FF0DC03D
:100B0000FE01EA0DF11D8081803311F4297E09C0B8
:100B100022FF06C07394739404C0822F867809F074
:100B2000739423FD13C020FF06C05A2C731418F4CD
:100B3000530C5718732C731468F4B70180E290E0DB
:100B40002C870E94B00373942C85F5CF731410F496
:100B5000371801C0312C24FF12C0B70180E390E0A8
:100B60002C870E94B0032C8522FF17C021FF03C0F1
:100B700088E590E002C088E790E0B7010CC0822FC2
:100B8000867859F021FD02C080E201C08BE227FD8A
:100B90008DE2B70190E00E94B003A51438F4B701CC
:100BA00080E390E00E94B0035A94F7CFAA94F40136
:100BB000EA0DF11D8081B70190E00E94B003A11001
:100BC000F5CF332009F451CEB70180E290E00E94C6
:100BD000B0033A94F6CFF7018681978102C08FEF78
:100BE0009FEF2C96E2E10C94D2070F931F93CF93C3
:100BF000DF93869F8001879F100D969F100D112413
:100C0000C8010E941106EC01009729F0A80160E0DC
:100C100070E00E944607CE01DF91CF911F910F91A6
:100C20000895CF93DF938230910510F482E090E035
:100C3000E091D901F091DA0120E030E0A0E0B0E0ED
:100C4000309739F14081518148175907B8F048175A
:100C5000590771F482819381109729F013969C9320
:100C60008E9312972CC09093DA018093D90127C0FC
:100C70002115310531F04217530718F0A901DB01A6
:100C800001C0EF019A01BD01DF010280F381E02D77
:100C9000D7CF21153105F9F0281B390B2430310548
:100CA00080F48A819B816115710521F0FB0193839A
:100CB000828304C09093DA018093D901FE013296B9
:100CC00044C0FE01E20FF31F81939193225031093A
:100CD000398328833AC02091D7013091D801232B42
:100CE00041F420910201309103013093D801209307
:100CF000D70120910001309101012115310541F406
:100D00002DB73EB74091040150910501241B350BCE
:100D1000E091D701F091D801E217F307A0F42E1B60
:100D20003F0B2817390778F0AC014E5F5F4F24174F
:100D3000350748F04E0F5F1F5093D8014093D701FD
:100D40008193919302C0E0E0F0E0CF01DF91CF9179
:100D50000895CF93DF93009709F487C0FC01329781
:100D600013821282C091D901D091DA01209781F4C7
:100D700020813181280F391F8091D7019091D801AE
:100D80008217930779F5F093D801E093D7016DC0EE
:100D9000DE0120E030E0AE17BF0750F412964D910F
:100DA0005C9113979D014115510509F1DA01F3CFCB
:100DB000B383A28340815181840F951F8A179B07BB
:100DC00071F48D919C911197840F951F02969183D8
:100DD000808312968D919C91139793838283211522
:100DE000310529F4F093DA01E093D9013EC0D9012D
:100DF0001396FC93EE9312974D915D91A40FB51F3E
:100E0000EA17FB0779F480819181840F951F029680
:100E1000D90111969C938E938281938113969C9312
:100E20008E931297E0E0F0E08A819B81009719F0A1
:100E3000FE01EC01F9CFCE01029628813981820FA3
:100E4000931F2091D7013091D8012817390769F4F1
:100E5000309729F41092DA011092D90102C013825E
:100E60001282D093D801C093D701DF91CF9108951A
:100E7000992788270895FC01059061507040011062
:100E8000D8F7809590958E0F9F1F0895DC0101C0C3
:100E90006D9341505040E0F70895FC01615070405F
:100EA00001900110D8F7809590958E0F9F1F08959F
:100EB000FA01AA27283051F1203181F1E8946F938B
:100EC0006E7F6E5F7F4F8F4F9F4FAF4FB1E03ED031
:100ED000B4E03CD0670F781F891F9A1FA11D680FCF
:100EE000791F8A1F911DA11D6A0F711D811D911D02
:100EF000A11D20D009F468943F912AE0269F112477
:100F00003019305D3193DEF6CF010895462F4770DA
:100F1000405D4193B3E00FD0C9F7F6CF462F4F7035
:100F2000405D4A3318F0495D31FD4052419302D093
:100F3000A9F7EACFB4E0A695979587957795679539
:100F4000BA95C9F700976105710508959B01AC0139
:100F50000A2E06945795479537952795BA95C9F760
:100F6000620F731F841F951FA01D08952F923F923B
:100F70004F925F926F927F928F929F92AF92BF92A9
:100F8000CF92DF92EF92FF920F931F93CF93DF9355
:100F9000CDB7DEB7CA1BDB0B0FB6F894DEBF0FBEB2
:100FA000CDBF09942A88398848885F846E847D84FF
:100FB0008C849B84AA84B984C884DF80EE80FD8001
:100FC0000C811B81AA81B981CE0FD11D0FB6F89477
:0E0FD000DEBF0FBECDBFED010895F894FFCF38
:100FDE000000DB0120007477695F7265706F7274B8
:100FEE00006363733831315F746573740048656CE8
:100FFE006C6F2C20776F726C64210065434F323A10
:10100E002025750A0054564F433A2025750A007361
:10101E0074617475733A203078253032780A003056
:10102E0078253032782C200025733A2025303278FE
:10103E000A000A1B5B313B33366D25731B5B306D2B
:10104E000A00434353383131207374617475733A17
:10105E0020253032782C202825303278290A00437A
:10106E004353383131206D6F64653A202530327824
:10107E00202825303278290A004343533831312055
:0E108E0064617461202825303278290A000040
:00000001FF
