:100000000C94E0000C94FD000C94FD000C94FD0099
:100010000C94FD000C94FD000C94FD000C94FD006C
:100020000C94FD000C94FD000C94FD000C94FD005C
:100030000C94FD000C94FD000C94FD000C94FD004C
:100040000C94FD000C94FD000C94FD000C94FD003C
:100050000C94FD000C94FD000C94FD000C94FD002C
:100060000C94FD000C94FD00536574206D65617364
:10007000757265206D6F6465206661696C656400EA
:1000800053656E736F72207374617475732065723B
:10009000726F72004572726F72207374617274694C
:1000A0006E672073656E736F72005374617274694A
:1000B0006E672073656E736F722E2E2E006E616EEA
:1000C00000696E660000407A10F35A00A0724E1864
:1000D000090010A5D4E80000E87648170000E40BFA
:1000E00054020000CA9A3B000000E1F505000080C0
:1000F000969800000040420F000000A0860100001A
:1001000000102700000000E8030000000064000069
:100110000000000A00000000000100000000002CA8
:1001200076D888DC674F0823DFC1DFAE59E1B1B76D
:1001300096E5E3E453C63AE651997696E8E6C2843A
:1001400026EB898C9B62ED407C6FFCEFBC9C9F4052
:10015000F2BAA56FA5F490055A2AF75C936B6CF977
:10016000676DC11BFCE0E40D47FEF520E6B500D04D
:10017000ED902E0300943577050080841E08000062
:10018000204E0A000000C80C333333330F986E1230
:10019000831141EF8D2114893BE65516CFFEE6DB36
:1001A00018D1844B381BF77C1D901DA4BBE4242080
:1001B0003284725E228100C9F124ECA1E53D270062
:1001C00011241FBECFEFD8E0DEBFCDBF11E0A0E00D
:1001D000B1E0E6EFFFE102C005900D92A839B1074A
:1001E000D9F721E0A8E9B1E001C01D92A03BB20718
:1001F000E1F70E9437060C94F90F0C9400000E945E
:100200000F010E9426029093A9018093A8010E94E9
:100210003B020E94B803811101C0FFCF08951092E4
:10022000C5008CE08093C4001092C00088E18093E8
:10023000C10086E08093C20008958091C00087FFCE
:1002400004C08091C60090E008958FEF9FEF08955D
:100250008091C00087FFFCCF8091C60008950E9466
:100260002801992787FD90950895CF92DF92EF920C
:10027000FF92CF93DF93EC016A017B01C114D1049B
:10028000E104F10449F00E942801899381E0C81A31
:10029000D108E108F108F2CFDF91CF91FF90EF9004
:1002A000DF90CF9008959091C00095FF06C0809395
:1002B000C600992787FD909508958FEF9FEF0895C9
:1002C0009091C00095FFFCCF8093C6000895CF9316
:1002D000C82F8A3019F48DE00E9467018C2F0E948C
:1002E00060018C2F992787FD9095CF910895CF922B
:1002F000DF92EF92FF92CF93DF93EC016A017B01D3
:10030000C114D104E104F10449F089910E94600113
:1003100081E0C81AD108E108F108F2CFDF91CF914E
:10032000FF90EF90DF90CF9008950F931F93CF939E
:10033000DF93EC018E018881882359F08A3019F40B
:100340008DE00E9460012196F80180810E94600189
:10035000F1CFDF91CF911F910F910895AF92BF928E
:10036000CF92DF92EF92FF921F93CF93DF9300D053
:1003700000D0CDB7DEB75C01415051096109710968
:10038000C12CD12C760149835A836B837C830E94D4
:100390002801182F49815A816B817C818D30F1F1C0
:1003A0008F3719F08A30B1F439C0C114D104E10497
:1003B000F10449F38FE749835A836B837C830E945E
:1003C0006001F1E0AF1AB10881E0C81AD108E10874
:1003D000F1081FC0992787FD909549835A836B8345
:1003E0007C830E94450D49815A816B817C81892BD8
:1003F00051F2C416D506E606F70629F2812F0E94AF
:100400006001F50111935F01FFEFCF1ADF0AEF0AD8
:10041000FF0A49815A816B817C81B5CF8DE00E94B2
:1004200060018AE00E946001F5011082C701B601F7
:100430000F900F900F900F90DF91CF911F91FF9031
:10044000EF90DF90CF90BF90AF9008958091A4017E
:100450009091A501892B51F46FE271E087E691E05C
:100460000E94610D9093A5018093A4018091A40145
:100470009091A501089582E08093B8001092B90090
:10048000089584EA8093BC008091BC0087FFFCCF74
:10049000089584E98093BC008091BC0084FDFCCF6A
:1004A00087EC90E00197F1F700C000000895809379
:1004B000BB0084E88093BC008091BC0087FFFCCF28
:1004C0009091B900987F81E0903431F0983129F013
:1004D000983219F080E0089508950895882311F066
:1004E00084EC01C084E88093BC008091BC0087FF4D
:1004F000FCCF8091BB000895CF93DF931F92CDB7BF
:10050000DEB789830E94410289810E945702898354
:100510000E94490289810F90DF91CF910895EF9257
:10052000FF920F931F93CF93DF9300D000D01F92C1
:10053000CDB7DEB72C833D834B836A8389830E94CA
:1005400041028981880F0E945702082F6A81862FF5
:100550000E94570291E02C813D814B81811190E0F6
:1005600011E0011110E0190F7901042F020F0E158F
:1005700051F0F70181917F010E94570291E08111B2
:1005800090E0190FF4CF0E94490281E0111180E040
:100590000F900F900F900F900F90DF91CF911F91C0
:1005A0000F91FF90EF900895CF92DF92EF92FF921C
:1005B0000F931F93CF93DF931F92CDB7DEB7E82E33
:1005C000142FF22E032F69830E944102EE0C8E2D10
:1005D0000E945702D82E6981862F0E94570291E00F
:1005E000811190E051E0D11050E0D92ED50E0E943B
:1005F00041028E2D81600E94570291E0811190E0AE
:10060000D90E21F41150CF2CD02E04C00E944902E3
:100610008D2D0DC01F3F41F0812F0E946E02F6010B
:1006200081936F011150F6CF0E94490281E00F9033
:10063000DF91CF911F910F91FF90EF90DF90CF90BE
:100640000895CF93DF931F92CDB7DEB79E012F5F42
:100650003F4F41E0682F8AE50E94D402882311F0C1
:10066000898101C080E00F90DF91CF910895CF93F1
:10067000DF9300D000D0CDB7DEB781E1898385EE6E
:100680008A8382E78B838AE88C839E012F5F3F4FAA
:1006900044E06FEF8AE50E948F020F900F900F9059
:1006A0000F90DF91CF910895CF93DF9300D000D0CA
:1006B000CDB7DEB787EE898387EA8A8386EE8B83A0
:1006C00089E08C839E012F5F3F4F44E061EF8AE514
:1006D0000E948F020F900F900F900F90DF91CF919B
:1006E0000895CF93DF93CDB7DEB728970FB6F89470
:1006F000DEBF0FBECDBFDE011196AE01475F5F4F7B
:100700009D01A417B50729F0FC0164916D93019632
:10071000F8CF48E062EF8AE50E948F0228960FB674
:10072000F894DEBF0FBECDBFDF91CF91089520E0DA
:1007300030E040E063EF8AE50C948F02CF93DF93C3
:1007400000D0CDB7DEB79E012F5F3F4F42E064E29D
:100750008AE50E94D40289819A819827892798275F
:100760000F900F90DF91CF91089580E00C942103BA
:100770000E94B50387FD12C08AEA90E00E941F0E16
:1007800020E030E040E064EF8AE50E948F028111B2
:10079000EFCF84E990E00E941F0EEACF0E94B503DC
:1007A0008079803919F080E890E00BC026E031E0D4
:1007B00041E061E08AE50E948F02811106C088E66F
:1007C00090E00E941F0E80E0089581E0089580EE81
:1007D0000C94210381E00C9421030E94B5038870DE
:1007E0000895CF93DF93EC019C0148E062E08AE535
:1007F0000E94D40288819981982789279827998314
:1008000088838A819B819827892798279B838A835D
:100810008E819F819827892798279F838E83DF91D8
:10082000CF910895CF92DF92EF92FF920F931F9393
:10083000CF93DF9300D000D0CDB7DEB769017A0146
:1008400020E030E040E054E40E94080C0E944E0B8F
:100850007627672776277A83698320E030E048ECA3
:1008600051E4C701B6010E94EA0A20E030E040E00E
:1008700054E40E94080C0E944E0B762767277627C7
:100880007C836B8383E791E09F938F930E94DE0DBF
:100890008A811F928F9389811F928F930CE711E0B9
:1008A0001F930F930E94DE0D8C811F928F938B817B
:1008B0001F928F931F930F930E94DE0D9E012F5F57
:1008C0003F4F44E065E08AE50E948F020FB6F8943E
:1008D000DEBF0FBECDBF0F900F900F900F90DF9136
:1008E000CF911F910F91FF90EF90DF90CF900895DF
:1008F0000E94E7031F928F9388E891E09F938F9364
:100900000E94DE0D0F900F900F900F9008950F939F
:100910001F93CF93DF9300D0CDB7DEB79E012F5F3B
:100920003F4F42E065EE80E40E94D402098110E06E
:10093000102F00278A81082B9E012F5F3F4F42E036
:1009400060EE80E40E94D402298130E0322F222719
:100950004A81B801C901842B0F900F90DF91CF918C
:100960001F910F910895CF93DF931F92CDB7DEB7FC
:100970009E012F5F3F4F41E067EE80E40E94D4026A
:10098000882311F0898101C080E00F90DF91CF9121
:100990000895CF93DF9300D0CDB7DEB79E012F5FD0
:1009A0003F4F42E063EE80E40E94D402898190E0F0
:1009B000982F88272A81822B0F900F90DF91CF915B
:1009C0000895CF92DF92EF92FF920F931F93CF93F0
:1009D000DF931F92CDB7DEB7182F99830E94410293
:1009E00080E80E945702F82E9981892F0E945702B1
:1009F00091E0811190E021E0F11020E0F92EF20E5B
:100A0000812F0E94570221E0811120E0F20E0E9406
:100A1000410281E80E94570291E0811190E09F0D10
:100A2000F9F416E0C12CD12C760103E0115098F0B6
:100A3000812F602F0E948D0A911104C0812F0E9486
:100A40006E02F4CFFE2CED2CDC2CCC24812F0E94E6
:100A50006E02C82AEBCF0E944902B601C70104C04A
:100A600060E070E080E090E00F90DF91CF911F9107
:100A70000F91FF90EF90DF90CF900895AF92BF92CB
:100A8000CF92DF92EF92FF920F931F93CF93DF935A
:100A90008FE09AEF0E94E104DC01CB019C01AD01E3
:100AA00060E070E080E090E000E20E94D00AD22E88
:100AB000C32EB42EA52E7B01D82FC92F89EC9CEF15
:100AC0000E94E1048B019C01D62AC12AB22A5A2D28
:100AD000532B2D2D3C2D4B2DB7018D2F9C2FDF91AE
:100AE000CF911F910F91FF90EF90DF90CF90BF902B
:100AF000AF9008951F93CF93DF931F92CDB7DEB7CA
:100B0000182F9E012F5F3F4F41E067EE80E40E9467
:100B1000D402811102C080E029C0898117FF02C080
:100B2000846001C08B7F89839E012F5F3F4F41E02E
:100B300066EE80E40E948F02882369F39E012F5F96
:100B40003F4F41E061E180E40E94D402882319F321
:100B5000812F8F709981907F892B89839E012F5FD0
:100B60003F4F41E061E580E40E948F020F90DF91EA
:100B7000CF911F91089599E080E0915069F0189B02
:100B8000FECF25E82A95F1F7000023B1880F2170E8
:100B9000822B1899FECFF1CF0895EF92FF920F9319
:100BA0001F93CF93DF9300D000D01F92CDB7DEB755
:100BB000189BFECF2898209A8FEC97E00197F1F7C9
:100BC00000C000002098289A90E59A95F1F785E1F9
:100BD000815061F0189905C0189BFECF1899FECF7F
:100BE0000BC09AE19A95F1F700C0F2CF1A821982F0
:100BF0001C821B828FEF18C00E94BB05E82E0E944A
:100C0000BB05F12CFE2CEE24E82A0E94BB05082F20
:100C10000E94BB0510E0102F0027082B0E94BB0587
:100C2000FA82E9821C830B838D8329813A814B816F
:100C30005C816D8170E080E090E00F900F900F90EC
:100C40000F900F90DF91CF911F910F91FF90EF9038
:100C50000895FC01DC0185E090E0815019F02D91B0
:100C6000920FFBCF81E02481921380E00895CF930F
:100C7000DF9300D000D0CDB7DEB70E94FF002FEF8A
:100C800033ED80E3215030408040E1F700C00000A8
:100C900087E091E00E94F20D80E00E947A050FE269
:100CA00011E08EE3E82E81E0F82E9BE4C92E91E05E
:100CB000D92E27E5A22E21E0B22E33E6832E31E095
:100CC000932EA5E1B1E0BF93AF930E94DE0D0E9489
:100CD00087046093A0017093A1018093A201909377
:100CE000A3016B837C832B813C81B90180E090E080
:100CF0000E947A0B20E030E04AEF52E40E94080C98
:100D000020E030E040E857E30E94080C20E030E0AB
:100D100040EC50E40E94E90A2B013C012091A20121
:100D20003091A301B90180E090E00E947A0B22E5A6
:100D300038EB4FE253E40E94080C20E030E040E83A
:100D400057E30E94080C26E636E64BE352E40E9485
:100D5000E90A69837A831C013C813F938B818F93DD
:100D60007F926F925F924F92A2E2B1E0BF93AF93F6
:100D70000E94DE0D8091A3018F938091A2018F9339
:100D80003F922F922A812F9339813F931F930F9384
:100D90000E94DE0D0E94ED030FB6F894DEBF0FBE79
:100DA000CDBF8823A9F1FF92EF920E94DE0D88E962
:100DB00091E00E94F10379816A81272F362F422D1D
:100DC000532D642D752D862D972D0E941204809130
:100DD00099018F93809198018F93DF92CF920E9417
:100DE000DE0D80919B018F9380919A018F93BF922A
:100DF000AF920E94DE0D80919D011F928F939F9272
:100E00008F920E94DE0D0FB6F894DEBF0FBECDBFED
:100E1000FFEF24E33CE0F15020403040E1F700C018
:100E200000004FCFA3E1B0E0E8E1F7E00C94990AAD
:100E30007C011B016A01FC0117821682838181FFFC
:100E400066C3BE016F5F7F4F4B01F7019381F101D4
:100E500093FD859193FF81911F01882309F453C36A
:100E6000853239F493FD859193FF81911F0185327D
:100E700039F4B70190E00E94AC0D56016501E5CF51
:100E800010E0512C20E02032A0F48B3269F030F4D5
:100E9000803259F0833269F420612CC08D3239F0F0
:100EA000803339F4216026C02260246023C028608A
:100EB00021C027FD27C030ED380F3A3078F426FFE7
:100EC00006C0FAE01F9F300D1124132F13C06AE0F3
:100ED000569E300D1124532E20620CC08E3221F408
:100EE00026FD11C3206406C08C3611F4206802C0B0
:100EF000883641F4F10193FD859193FF81911F01A3
:100F00008111C1CF9BEB980F933018F42061805E64
:100F100006C09BE9980F933008F0AAC12F7E26FFE8
:100F200016E02F73722E853621F4F22FF0647F2E97
:100F300008C0863621F4622F6068762E02C0111137
:100F4000115077FE07C01C3348F444244394410EEB
:100F500027E00BC0183030F4212F06C027E04CE307
:100F6000442E03C027E017E0412C560174E0A70E81
:100F7000B11CF6016081718182819381042DA401ED
:100F80000E946B0C6C01098100FF02C003FF06C0C8
:100F900071FC07C072FC08C0612C08C03DE2632EE2
:100FA00005C02BE2622E02C090E2692E802F8C7069
:100FB00099F1662011F084E001C083E0851510F0FE
:100FC000512C0BC0581A73FC08C0B70180E290E0A6
:100FD0000E94AC0D5A94C9F7F3CF662029F0B701EF
:100FE000862D90E00E94AC0D03FD03C001EC10E0E3
:100FF00002C00DEB10E0F72DF0717F2EF801849107
:10100000882309F476C271108052B70190E00E94E3
:10101000AC0D0F5F1F4FF2CF77FE0FC04C0C04FFDB
:1010200004C08A81813309F44A94141474F5F8E0F9
:10103000F41578F588E0482E2CC076FC2AC0812F64
:1010400090E08C159D059CF06CEFC6166FEFD606F0
:1010500074F0772D7068772E0AC0E2E0F0E0EC0FB4
:10106000FD1FE10FF11D8081803319F41150111122
:10107000F4CF77FE0EC044244394410E812F90E0BC
:10108000C816D9062CF41C1904C04424439401C08A
:1010900010E077FE07C01C141D043CF496012F5F7E
:1010A0003F4F05C025E030E002C021E030E066207F
:1010B00011F02F5F3F4F112331F0412F50E04F5F70
:1010C0005F4F240F351F452D50E02417350714F4CA
:1010D000521A01C0512C872D897049F4552039F0DE
:1010E000B70180E290E00E94AC0D5A94F7CF6620E1
:1010F00029F0B701862D90E00E94AC0D73FC09C069
:10110000552039F0B70180E390E00E94AC0D5A946D
:10111000F7CF77FE5FC09C2D8D2DD7FE02C090E0EB
:1011200080E0692E782E40E050E0C60184199109D4
:101130009D878C87960126193709280D391D812F27
:1011400090E0EE27FF27E81BF90BFF87EE87FFEF04
:101150006F167F0669F4B7018EE290E02B8B3A8B15
:10116000488B598B0E94AC0D598948893A892B8943
:10117000C614D70454F06C857D85661577052CF46C
:10118000F901E40FF51F818101C080E371E0671A66
:1011900071084F5F5F4FEE85FF856E167F066CF01E
:1011A000B70190E02B8B3A8B488B598B0E94AC0D8A
:1011B0002B893A8948895989CACF6C147D0439F43E
:1011C0009A81963318F4953311F404FF81E3B70143
:1011D00090E04BC08A81813309F00F7EB70190E027
:1011E0000E94AC0D111105C074FE18C085E490E09A
:1011F00017C0B7018EE290E00E94AC0D82E0662439
:101200006394680EF401E80FF11D8081B70190E04E
:101210000E94AC0D115041F3862DF1CF85E690E090
:10122000B7010E94AC0DD7FC05C0C114D10439F43C
:1012300004FF05C0D194C194D1088DE201C08BE2B6
:10124000B70190E00E94AC0D80E36AE0C616D104BD
:101250002CF08F5FFAE0CF1AD108F7CFB70190E0FA
:101260000E94AC0DB701C601C0960E94AC0D41C1F1
:10127000833631F0833779F0833509F058C021C0C7
:10128000560172E0A70EB11CF6018081898301E04E
:1012900010E0640114C05601F2E0AF0EB11CF6017B
:1012A000C080D18026FF03C0612F70E002C06FEFC5
:1012B0007FEFC6012B8B0E94560D8C012B892F7757
:1012C00015C05601F2E0AF0EB11CF601C080D1800E
:1012D00026FF03C0612F70E002C06FEF7FEFC601F1
:1012E0002B8B0E944B0D8C012B892068722E23FDC5
:1012F0001AC0852D90E008171907A8F4B70180E2FD
:1013000090E00E94AC0D5A94F4CFF60177FC8591E1
:1013100077FE81916F01B70190E00E94AC0D5110F2
:101320005A94015011090115110579F7E2C084366C
:1013300011F0893651F5560127FF09C0F4E0AF0ED0
:10134000B11CF60160817181828193810AC0F2E053
:10135000AF0EB11CF60160817181882777FD809501
:10136000982F022F0F7697FF08C090958095709563
:1013700061957F4F8F4F9F4F00682AE030E0A401B6
:101380000E944E0EC82EC8183EC0022F853721F489
:101390000F7E2AE030E01DC0097F8F3691F018F4EF
:1013A000883559F0B0C0803719F0883711F0ABC0DC
:1013B000006104FF09C0046007C024FF08C0066084
:1013C00006C028E030E005C020E130E002C020E1A6
:1013D00032E0560107FF09C0F4E0AF0EB11CF60180
:1013E000608171818281938108C0F2E0AF0EB11CEF
:1013F000F6016081718180E090E0A4010E944E0EB0
:10140000C82EC8180F7706FF0BC0202F2E7FC116DD
:1014100050F404FF0AC002FD08C0202F2E7E05C034
:10142000DC2C202F03C0DC2C01C0D12E24FF0DC0EA
:10143000FE01EC0DF11D8081803311F4297E09C07D
:1014400022FF06C0D394D39404C0822F867809F07B
:10145000D39423FD13C020FF06C01C2DD51418F40F
:10146000150D1D19D52CD51468F4B70180E290E054
:101470002B8B0E94AC0DD3942B89F5CFD51410F48F
:101480005D1801C0512C24FF12C0B70180E390E029
:101490002B8B0E94AC0D2B8922FF17C021FF03C0AC
:1014A00088E590E002C088E790E0B7010CC0822F89
:1014B000867859F021FD02C080E201C08BE227FD51
:1014C0008DE2B70190E00E94AC0DC11638F4B7016F
:1014D00080E390E00E94AC0D1150F7CFCA94F40164
:1014E000EC0DF11D8081B70190E00E94AC0DC110A0
:1014F000F5CF552009F4C2CCB70180E290E00E94FC
:10150000AC0D5A94F6CFF7018681978102C08FEF18
:101510009FEF6396E2E10C94B50A991B79E004C051
:10152000991F961708F0961B881F7A95C9F7809522
:1015300008952F923F924F925F926F927F928F9277
:101540009F92AF92BF92CF92DF92EF92FF920F9352
:101550001F93CF93DF93CDB7DEB7CA1BDB0B0FB65C
:10156000F894DEBF0FBECDBF09942A883988488819
:101570005F846E847D848C849B84AA84B984C884AF
:10158000DF80EE80FD800C811B81AA81B981CE0FA6
:10159000D11D0FB6F894DEBF0FBECDBFED0108958B
:1015A0000F93083090F0982F872F762F652F542FA8
:1015B000432F322F22270850F4CF220F331F441F0E
:1015C000551F661F771F881F991F0A95B2F70F9145
:1015D00008955058BB27AA270ED0E0C0D1D030F0D4
:1015E000D6D020F031F49F3F11F41EF4C6C00EF4A3
:1015F000E095E7FBBCC0E92FE2D080F3BA176207A1
:1016000073078407950718F071F49EF5FAC00EF47D
:10161000E0950B2EBA2FA02D0B01B90190010C0102
:10162000CA01A0011124FF27591B99F0593F50F41A
:10163000503E68F11A16F040A22F232F342F442772
:10164000585FF3CF469537952795A795F04053956A
:10165000C9F77EF41F16BA0B620B730B840BBAF03A
:101660009150A1F0FF0FBB1F661F771F881FC2F7A5
:101670000EC0BA0F621F731F841F48F487957795B9
:101680006795B795F7959E3F08F0B3CF9395880F70
:1016900008F09927EE0F97958795089598D088F0D0
:1016A0009F5790F0B92F9927B751A0F0D1F0660F4E
:1016B000771F881F991F1AF0BA95C9F712C0B13069
:1016C00081F09FD0B1E008959CC0672F782F8827C4
:1016D000B85F39F0B93FCCF3869577956795B395A8
:1016E000D9F73EF490958095709561957F4F8F4F17
:1016F0009F4F0895E89409C097FB3EF4909580951C
:10170000709561957F4F8F4F9F4F9923A9F0F92FC7
:1017100096E9BB279395F695879577956795B79545
:10172000F111F8CFFAF4BB0F11F460FF1BC06F5F2B
:101730007F4F8F4F9F4F16C0882311F096E911C03D
:10174000772321F09EE8872F762F05C0662371F05E
:1017500096E8862F70E060E02AF09A95660F771F72
:10176000881FDAF7880F9695879597F9089597F966
:101770009F6780E870E060E008959FEF80EC089537
:1017800000240A9416161706180609060895002460
:101790000A9412161306140605060895092E0394DA
:1017A000000C11F4882352F0BB0F40F4BF2B11F44E
:1017B00060FF04C06F5F7F4F8F4F9F4F089557FDAD
:1017C0009058440F551F59F05F3F71F04795880FAF
:1017D00097FB991F61F09F3F79F087950895121646
:1017E00013061406551FF2CF4695F1DF08C01616F2
:1017F00017061806991FF1CF8695710561050894A3
:101800000895E894BB2766277727CB0197F90895B9
:101810000BD0C4CFB5DF28F0BADF18F0952309F05C
:10182000A6CFABCF1124EECFCADFA0F3959FD1F3A3
:10183000950F50E0551F629FF001729FBB27F00D7E
:10184000B11D639FAA27F00DB11DAA1F649F6627D3
:10185000B00DA11D661F829F2227B00DA11D621F22
:10186000739FB00DA11D621F839FA00D611D221FDC
:10187000749F3327A00D611D231F849F600D211DC0
:10188000822F762F6A2F11249F5750408AF0E1F063
:1018900088234AF0EE0FFF1FBB1F661F771F881FAC
:1018A00091505040A9F79E3F510570F060CFAACFEC
:1018B0005F3FECF3983EDCF3869577956795B79597
:1018C000F795E7959F5FC1F7FE2B880F911D9695C1
:1018D000879597F90895283008F027E03327DA0133
:1018E000990F311D87FD916000966105710539F4EE
:1018F00032602E5F3D9330E32A95E1F708959F3FD4
:1019000030F080387105610509F03C5F3C5F3D9324
:10191000913008F08068911DDF93CF931F930F9350
:10192000FF92EF92192F987F9695E92F96959695AD
:10193000E90FFF27E15EFE4F99273327EE24FF24AE
:10194000A701E70105900894079428F4360FE71ED5
:10195000F81E491F511D660F771F881F991F069497
:10196000A1F70590079428F4E70EF81E491F561FAB
:10197000C11D770F881F991F661F0694A1F7059058
:10198000079428F4F80E491F561FC71FD11D880F52
:10199000991F661F771F0694A1F70590079420F4FE
:1019A000490F561FC71FD81F990F661F771F881F23
:1019B0000694A9F784911095177041F0D695C795B4
:1019C00057954795F794E7941A95C1F7E5ECF0E041
:1019D00068941590159135916591959105907FE2E8
:1019E0007395E118F10A430B560BC90BD009C0F7E8
:1019F000E10CF11E431F561FC91FD01D7EF470332A
:101A000011F48A95E6CFE894015030F0080F0AF4FB
:101A10000027021708F4202F2395022F7A3328F08D
:101A200079E37D932A95E9F710C07D932A9589F68D
:101A3000069497956795379517951794E118F10ACD
:101A4000430B560BC90BD00998F023957E917395E3
:101A50007A3308F070E37C932013B8F77E917061BD
:101A60007D9330F0839571E37D9370E32A95E1F7E0
:101A70001124EF90FF900F911F91CF91DF91992743
:101A800087FD90950895803209F09111A8C2805287
:101A90008F55E0F70895FC010590615070400110EA
:101AA000D8F7809590958E0F9F1F0895FC01615087
:101AB000704001900110D8F7809590958E0F9F1F70
:101AC00008950F931F93CF93DF93EC018B01009741
:101AD00031F46115710519F480E090E038C06EE0D2
:101AE00070E081E090E00E94AC0EFC010097A1F351
:101AF00080E883830115110571F01387028781E85F
:101B000083838091A6019091A701892B21F4F09302
:101B1000A701E093A6012097C9F0D187C0878381F0
:101B2000826083838091A8019091A901892B71F42F
:101B3000F093A901E093A8018091AA019091AB01D3
:101B4000892B21F4F093AB01E093AA01CF01DF913F
:101B5000CF911F910F9108950F931F93CF93DF9310
:101B6000182F092FEB018B8181FD03C08FEF9FEFB1
:101B700020C082FF10C04E815F812C813D814217C1
:101B800053077CF4E881F9819F012F5F3F4F398330
:101B90002883108306C0E885F985812F0995892B54
:101BA00029F72E813F812F5F3F4F3F832E83812F67
:101BB000902FDF91CF911F910F910895A0E0B0E099
:101BC000E4EEFDE00C94A90AFE0135966191719155
:101BD000AF018091A8019091A9010E941207E2E053
:101BE0000C94C50A0F931F93CF93DF93E091A80144
:101BF000F091A901238121FF1BC0EC0100E010E05E
:101C000089916091A8017091A901DB011896ED916D
:101C1000FC911997882331F00995892B89F30FEFEF
:101C20001FEFEECF8AE00995892B11F4C80102C09D
:101C30008FEF9FEFDF91CF911F910F9108950F9339
:101C40001F93CF93DF93EC01E091A801F091A901DC
:101C5000838181FF1CC000E010E0FE01849160914F
:101C6000A8017091A901DB011896ED91FC911997DB
:101C7000882339F00995892B11F00FEF1FEF21967A
:101C8000ECCF8AE00995892B11F4C80102C08FEFCF
:101C90009FEFDF91CF911F910F910895FA01AA272D
:101CA000283051F1203181F1E8946F936E7F6E5F9F
:101CB0007F4F8F4F9F4FAF4FB1E03ED0B4E03CD04D
:101CC000670F781F891F9A1FA11D680F791F8A1F30
:101CD000911DA11D6A0F711D811D911DA11D20D097
:101CE00009F468943F912AE0269F11243019305D51
:101CF0003193DEF6CF010895462F4770405D419342
:101D0000B3E00FD0C9F7F6CF462F4F70405D4A338E
:101D100018F0495D31FD4052419302D0A9F7EACF56
:101D2000B4E0A6959795879577956795BA95C9F785
:101D300000976105710508959B01AC010A2E069478
:101D40005795479537952795BA95C9F7620F731F31
:101D5000841F951FA01D08950F931F93CF93DF93AA
:101D6000869F8001879F100D969F100D1124C8013A
:101D70000E94C80EEC01009729F0A80160E070E015
:101D80000E94F20FCE01DF91CF911F910F91089524
:101D9000CF93DF938230910510F482E090E0E091E0
:101DA000AE01F091AF0120E030E0A0E0B0E030976C
:101DB00039F14081518148175907B8F04817590740
:101DC00071F482819381109729F013969C938E93DE
:101DD00012972CC09093AF018093AE0127C02115BC
:101DE000310531F04217530718F0A901DB0101C09A
:101DF000EF019A01BD01DF010280F381E02DD7CF11
:101E000021153105F9F0281B390B2430310580F4F8
:101E10008A819B816115710521F0FB019383828387
:101E200004C09093AF018093AE01FE01329644C08E
:101E3000FE01E20FF31F8193919322503109398300
:101E400028833AC02091AC013091AD01232B41F49D
:101E500020910201309103013093AD012093AC0138
:101E600020910001309101012115310541F42DB778
:101E70003EB74091040150910501241B350BE091C0
:101E8000AC01F091AD01E217F307A0F42E1B3F0B5C
:101E90002817390778F0AC014E5F5F4F24173507DC
:101EA00048F04E0F5F1F5093AD014093AC018193FA
:101EB000919302C0E0E0F0E0CF01DF91CF9108956F
:101EC000CF93DF93009709F487C0FC013297138208
:101ED0001282C091AE01D091AF01209781F4208190
:101EE0003181280F391F8091AC019091AD0182178B
:101EF000930779F5F093AD01E093AC016DC0DE017D
:101F000020E030E0AE17BF0750F412964D915C917F
:101F100013979D014115510509F1DA01F3CFB38300
:101F2000A28340815181840F951F8A179B0771F40A
:101F30008D919C911197840F951F029691838083B8
:101F400012968D919C91139793838283211531056D
:101F500029F4F093AF01E093AE013EC0D90113968E
:101F6000FC93EE9312974D915D91A40FB51FEA1764
:101F7000FB0779F480819181840F951F0296D90126
:101F800011969C938E938281938113969C938E934A
:101F90001297E0E0F0E08A819B81009719F0FE0142
:101FA000EC01F9CFCE01029628813981820F931F6F
:101FB0002091AC013091AD012817390769F43097B1
:101FC00029F41092AF011092AE0102C01382128266
:101FD000D093AD01C093AC01DF91CF9108959927C3
:101FE00088270895DC0101C06D9341505040E0F70F
:061FF0000895F894FFCFF4
:101FF6000000B00120001048656C6C6F2C20776FD4
:10200600726C6421001B5B39326D53693730323193
:1020160009007C2052483A09256709257509007C84
:102026002054454D503A0925670925750A001B5B62
:1020360039346D43435338313109007C2065434FB1
:10204600323A09257509007C2054564F433A092532
:102056007509007C20535441543A093078253032B2
:10206600780A007C20454E56573A090030782530CC
:1020760032782530327809007C204552523A0930B0
:0820860078253032780A0000D1
:00000001FF
